S0120000536C6964655F4D61696E2E737265633D
S11300009DC00000BBC00000B9C00000B7C0000024
S1130010B5C00000B3C00000B1C00000AFC0000014
S1130020ADC00000ABC00000A9C00000A7C0000024
S1130030A5C00000A3C00000A1C000009FC0000034
S11300409DC000009BC0000099C0000097C0000044
S11300508AC3000093C0000091C000008FC000005C
S11300608DC000000AC3000089C0000087C00000E2
S113007085C0000083C0000081C000007FC0000074
S11300807DC000007BC0000079C0000077C0000084
S113009075C0000073C0000071C000006FC0000094
S11300A06DC000006BC0000069C0000067C00000A4
S11300B065C0000063C0000061C000005FC00000B4
S11300C05DC000005BC0000059C0000069C20000B0
S11300D055C0000053C0000051C000004FC00000D4
S11300E04DC0000074018D018D018D0177017A01ED
S11300F08D017E01820186018A01D301EC01EC01AC
S1130100EC01D601D901EC01DD01E101E501E901D0
S113011032024B024B024B02350238024B023C02C4
S11301204002440248029102AA02AA02AA029402CC
S11301309702AA029B029F02A302A70211241FBED8
S1130140CFEFD1E2DEBFCDBF00E00CBF13E0A0E0F3
S1130150B2E0E4EFF1E100E00BBF02C007900D92C2
S1130160A637B107D9F724E0A6E7B3E001C01D9292
S1130170A737B207E1F703D00C94F80841CF87E61C
S113018090E02DD487E690E009D464D382E092E035
S113019018D4A5D58EE590E027D3019609F4ADD502
S11301A07894C2E38FEF91EEA4E081509040A04098
S11301B0E1F700C0000085E494E055D4833009F4ED
S11301C025C130F4813059F0823009F4C0C0EACF3F
S11301D0843009F47AC1823109F4D6C1E3CFBFEF88
S11301E021EE84E0B15020408040E1F700C00000DF
S11301F085E494E038D4853009F45FC0863009F092
S113020098C09FEFA1EEB4E09150A040B040E1F758
S113021000C000008CE092E0D4D361D588E192E084
S113022003D72FEF8DE399E4215080409040E1F70C
S113023000C000008CE292E0F7D680E090E0D4D2D7
S113024030D788E492E0F0D684E090E0CDD26FE736
S113025073E04DD78FE592E0E7D688E090E0C4D212
S11302606FE773E044D786E792E0DED68CE090E057
S1130270BBD26FE773E03BD78DE892E0D5D680E13F
S113028090E0B2D26FE773E032D784EA92E0CCD642
S113029084E190E0A9D26FE773E029D78CE292E081
S11302A0C3D682E090E0A0D2FCD6E5E4F4E0DF011E
S11302B02C2F1D922A95E9F73CC08FEF91EEA4E014
S11302C081509040A040E1F700C0000085E494E034
S11302D0CAD390E0FC013797EB30F105F0F488279E
S11302E0EE58FF4F8F4F04C780E0C3D516C082E09D
S11302F009D613C066E084E013D50FC06AE088E035
S11303000FD50BC06EE08CE00BD507C062E180E135
S113031007D503C066E184E103D585E494E0A3D363
S1130320843659F6E5E4F4E0DF012C2F1D922A957A
S1130330E9F785E494E097D3843609F050CFE5E4F7
S1130340F4E0DF012C2F1D922A95E9F72BCF8FEFD4
S113035091EEA4E081509040A040E1F700C000007D
S113036085E494E080D3853039F0863009F040C0CC
S11303708BEB92E057D33CC0BFEF21EE84E0B15049
S113038020408040E1F700C0000085E494E06BD396
S113039090E0FC013797EB30F105F0F48827E3583F
S11303A0FF4F8F4FA5C688E164D516C08AE1AAD550
S11303B013C06EE18CE1B4D40FC062E280E2B0D429
S11303C00BC066E284E2ACD407C06AE288E2A8D437
S11303D003C06EE28CE2A4D485E494E044D3843672
S11303E059F6E5E4F4E0DF012C2F1D922A95E9F794
S11303F085E494E038D3843609F0A9CFE5E4F4E049
S1130400DF012C2F1D922A95E9F7CCCE8FEF91EEC8
S1130410A4E081509040A040E1F700C0000085E4D2
S113042094E021D3853039F0863009F040C08BEB5D
S113043092E0F8D23CC0BFEF21EE84E0B1502040FE
S11304408040E1F700C0000085E494E00CD390E024
S1130450FC013797EB30F105F0F48827E857FF4F9C
S11304608F4F46C680E305D516C08C2F4BD513C0DD
S113047066E384E355D40FC06AE388E351D40BC028
S11304806EE38CE34DD407C062E480E449D403C036
S113049066E484E445D485E494E0E5D2843659F6F0
S11304A0E5E4F4E0DF012C2F1D922A95E9F785E4B9
S11304B094E0D9D2843609F0A9CFE5E4F4E0DF0171
S11304C02C2F1D922A95E9F76DCE8FEF91EEA4E0C3
S11304D081509040A040E1F700C0000085E494E022
S11304E0C2D2853039F0863009F040C08BEB92E0FF
S11304F099D23CC0BFEF21EE84E0B150204080404F
S1130500E1F700C0000085E494E0ADD290E0FC0186
S11305103797EB30F105F0F48827ED56FF4F8F4FF6
S1130520E7C588E4A6D416C08AE4ECD413C06EE40C
S11305308CE4F6D30FC062E580E5F2D30BC066E528
S113054084E5EED307C06AE588E5EAD303C06EE527
S11305508CE5E6D385E494E086D2843659F6E5E466
S1130560F4E0DF012C2F1D922A95E9F785E494E04D
S11305707AD2843609F0A9CFE5E4F4E0DF012C2F28
S11305801D922A95E9F70ECE8FEF91EEA4E08150EB
S11305909040A040E1F700C0000080E6FCD402CE09
S11305A01F920F920FB60F9211240BB60F922F9336
S11305B03F934F935F936F937F938F939F93AF93E7
S11305C0BF93CF93EF93FF931DD2C82F13D2CC3395
S11305D0C1F480917C03811116C010927E0381E0E6
S11305E080937C0382E3E7E8F3E0DF01982F1D9218
S11305F09A95E9F7E5E4F4E0DF011D928A95E9F7BD
S113060028C0CE3311F180917C03813011F5E09143
S11306107E03F0E0E957FC4FC08380917E038F5F37
S113062080937E0316C067E873E085E494E07FD589
S113063081E080937D0310927C0382E3E7E8F3E09A
S1130640DF011D928A95E9F704C080917C03813013
S113065051F3FF91EF91CF91BF91AF919F918F9102
S11306607F916F915F914F913F912F910F900BBEAE
S11306700F900FBE0F901F9018951F920F920FB6F8
S11306800F9211240BB60F922F933F934F935F93C6
S11306906F937F938F939F93AF93BF93CF93EF9376
S11306A0FF93B8D1C82FA6D1CC33C1F480917C0379
S11306B0811116C010927E0381E080937C0382E353
S11306C0E7E8F3E0DF01982F1D929A95E9F7E5E456
S11306D0F4E0DF011D928A95E9F723C0CE3351F18E
S11306E080917C038130E9F4E0917E03F0E0E957E6
S11306F0FC4FC08380917E038F5F80937E0311C083
S113070067E873E085E494E012D581E080937D038B
S113071010927C0382E3E7E8F3E0DF011D928A95FF
S1130720E9F780917E03823350F010927E03109299
S11307307C0305C080917C03813099F7E1CFFF9160
S1130740EF91CF91BF91AF919F918F917F916F91D5
S11307505F914F913F912F910F900BBE0F900FBE61
S11307600F901F9018951F920F920FB60F9211249D
S11307708F939F938091780390917903019690933E
S113078079038093780387EF92EC909385008093AC
S1130790840085E0809381009F918F910F900FBE1C
S11307A00F901F901895F894F999FECF92BD81BDD2
S11307B060BDFA9AF99A78940895F999FECF92BD9A
S11307C081BDF89A80B508951F93CF93DF93EC0110
S11307D0172FF894E8DF612FCE010196E4DF7894B7
S11307E0DF91CF911F9108950F931F93CF938C01A5
S11307F0E4DFC82FC8010196E0DF2C2F30E0A90107
S1130800582BCA01CF911F910F910895FC01838148
S1130810811111C030810180F281E02D229181E0AB
S113082090E002C0880F991F3A95E2F78095909561
S113083082238083089530810180F281E02D22910A
S113084081E090E002C0880F991F3A95E2F7822B6D
S113085080830895E1EDF3E081E08383808322E0E7
S113086031E032832183E5ECF3E01382108232839A
S11308702183EDECF3E08383108244E350E0528360
S11308804183E9EBF3E08383108248E250E0528332
S11308904183EFE7F3E0838396E0908345E250E001
S11308A052834183EDEBF3E0838365E060835283FD
S11308B04183EFE0F4E0838394E0908352834183A7
S11308C0E7E0F4E08383608332832183E9ECF3E09F
S11308D08383908332832183EBE0F4E0838393E08A
S11308E0908332832183E3E8F3E0838327E020834A
S11308F02BE230E032832183E1ECF3E083839083C5
S11309008BE091E09283818385EC93E07FDF81ED3E
S113091093E07CDF8DEC93E079DF89EB93E076DF85
S11309208FE793E073DF8DEB93E070DF8FE094E06B
S11309306DDF87E094E06ADF89EC93E067DF8BE0AA
S113094094E064DF83E893E061DF81EC93E05ECFC1
S11309500895613089F4DC013C911196ED91FC918C
S11309601297208181E090E002C0880F991F3A9588
S1130970E2F7822B80830895FC0130810180F281AB
S1130980E02D208181E090E002C0880F991F3A9504
S1130990E2F7809590958223808308959093C50013
S11309A08093C40088E98093C10086E08093C200EC
S11309B00895E0ECF0E0908195FFFDCF8093C600B0
S11309C00895CF93DF93EC018881882329F0219641
S11309D0F0DF89918111FCCFDF91CF91089590933D
S11309E0D5008093D40088E98093D10086E0809379
S11309F0D2000895E0EDF0E0908195FFFDCF809363
S1130A00D6000895E0EDF0E080818823ECF7809132
S1130A10D6000895E0ECF0E080818823ECF7809123
S1130A20C6000895CF93DF93EC018881882329F0D1
S1130A302196E0DF89918111FCCFDF91CF91089558
S1130A40109280001092820087EF92EC90938500C0
S1130A508093840085E080938100EFE6F0E080815C
S1130A608160808308950F931F93CF93DF93EC01EC
S1130A7061EC72E045D38C0163EC72E0CE014ED39D
S1130A80892B09F408C16DEC72E0CE0147D3892BA0
S1130A9009F403C167ED72E0CE0140D3892B09F458
S1130AA0FEC061EE72E0CE0139D3892B09F4F9C09E
S1130AB06BEE72E0CE0132D3892B09F4F4C062EFFD
S1130AC072E0CE012BD3892B09F4EFC068EF72E0FA
S1130AD0CE0124D3892B09F4EAC06DEF72E0CE0174
S1130AE01DD3892B09F4E5C066E073E0CE0116D36B
S1130AF0892B09F4E0C060E173E0CE010FD3892BA8
S1130B0009F4DBC065E173E0CE0108D3892B09F455
S1130B10D6C06AE173E0CE0101D3892B09F4D1C0B8
S1130B206FE173E0CE01FAD2892B09F4CCC064E200
S1130B3073E0CE01F3D2892B09F4C7C069E273E0F4
S1130B40CE01ECD2892B09F4C2C061E373E0C80181
S1130B50E5D2892BE1F461EC72E080E090E0D0D240
S1130B60DC012C9130E030930102209300021196B5
S1130B708C91382B309301022093000282E3E5E448
S1130B80F4E0DF011D928A95E9F789E0A3C068E3E8
S1130B9073E0C801C3D2892BD9F461EC72E080E020
S1130BA090E0AED2FC01208130E03093010220932A
S1130BB000028181382B309301022093000282E3EA
S1130BC0E5E4F4E0DF011D928A95E9F78AE082C04A
S1130BD060E473E0C801A2D2892BD9F461EC72E01D
S1130BE080E090E08DD2FC01208130E0309301025E
S1130BF0209300028181382B30930102209300025C
S1130C0082E3E5E4F4E0DF011D928A95E9F78DE0E3
S1130C1061C069E473E0C80181D2892BD9F461EC25
S1130C2072E080E090E06CD2FC01208130E03093EF
S1130C300102209300028181382B3093010220931A
S1130C40000282E3E5E4F4E0DF011D928A95E9F70E
S1130C5088E040C061E573E0C80160D2892BC9F522
S1130C6061EC72E080E090E04BD2FC01208130E046
S1130C7030930102209300028181382B30930102CA
S1130C802093000282E3E5E4F4E0DF011D928A95FB
S1130C90E9F783E11FC081E01DC082E01BC083E04F
S1130CA019C084E017C085E015C086E013C084E64F
S1130CB011C087E00FC08BE00DC08CE00BC08EE04C
S1130CC009C08FE007C080E105C081E103C082E173
S1130CD001C080E0DF91CF911F910F9108958FEFB4
S1130CE068DE8FEF66DE8FEF64DE82E3E5EDF3E02E
S1130CF0DF011D928A95E9F70895CF93DF93C0E051
S1130D00D0E0CE0171DD019621F460E070E0CE0107
S1130D105BDD2296C236D105A1F7DF91CF9108950C
S1130D20EF92FF920F931F93CF93DF93082F10E05E
S1130D300F2EF2E3EF2EF02DC62FD0E0FF24F39414
S1130D402FEF81EE94E0215080409040E1F700C005
S1130D50000089E593E066DE80917B034BDE909191
S1130D607B03911112C08EE593E02BDEC8013CDDBC
S1130D704AE065ED73E009D285ED93E022DEAFDF52
S1130D8080917B038F5F80937B0385E494E06BDE2B
S1130D90883009F056C06091000270910102C801C8
S1130DA013DD10927B03AFEFB1EE24E0A150B0400D
S1130DB02040E1F700C0000086E693E033DE809136
S1130DC07B0318DE90917B03911112C08EE593E0B2
S1130DD0F8DDCE0109DD4AE065ED73E0D6D185ED9D
S1130DE093E0EFDD7CDF90917B039F5F90937B0327
S1130DF085E494E038DE8D3089F4609100027091CE
S1130E000102CE01E1DC95E0E8EFF2E0A5E4B4E014
S1130E1001900D929A95E1F7F0927A0385E494E0BB
S1130E2022DE843609F0BFCF10927B0380917A03CF
S1130E30813039F0E5E4F4E0DF012E2D1D922A958E
S1130E40E9F785E494E00FDE843609F079CF109257
S1130E507B0382E3E5E4F4E0DF011D928A95E9F780
S1130E6010927A03DF91CF911F910F91FF90EF9031
S1130E700895CF93DF93C82FD0E02FEF81EE94E055
S1130E80215080409040E1F700C0000090917B0326
S1130E90911112C08EE593E094DDCE01A5DC4AE009
S1130EA065ED73E072D185ED93E08BDD18DF9091F1
S1130EB07B039F5F90937B0385E494E0D4DD8930CA
S1130EC079F46091000270910102CE017DDC95E01D
S1130ED0E8EFF2E0A5E4B4E001900D929A95E1F711
S1130EE085E494E0C0DD843609F0C7CF10927B031B
S1130EF082E3E5E4F4E0DF011D928A95E9F7DF91EE
S1130F00CF910895CF93DF93C82FD0E02FEF81EED8
S1130F1094E0215080409040E1F700C0000090919F
S1130F207B03911112C08EE593E04BDDCE015CDCB6
S1130F304AE065ED73E029D185ED93E042DDCFDE33
S1130F4090917B039F5F90937B0385E494E08BDD1A
S1130F508A3079F46091000270910102CE0134DC90
S1130F6095E0E8EFF2E0A5E4B4E001900D929A95E3
S1130F70E1F785E494E077DD843609F0C7CF109279
S1130F807B0382E3E5E4F4E0DF011D928A95E9F74F
S1130F90DF91CF910895CF93DF93C82FD0E02FEF47
S1130FA081EE94E0215080409040E1F700C00000C1
S1130FB090917B03911112C08EE593E002DDCE0186
S1130FC013DC4AE065ED73E0E0D085ED93E0F9DCF5
S1130FD086DE90917B039F5F90937B0385E494E08E
S1130FE042DD833179F46091000270910102CE01F7
S1130FF0EBDB95E0E8EFF2E0A5E4B4E001900D92BC
S11310009A95E1F785E494E02EDD843609F0C7CFA4
S113101010927B0382E3E5E4F4E0DF011D928A95FC
S1131020E9F7DF91CF9108950F931F93CF93DF9347
S1131030BC012FEF81EE94E0215080409040E1F715
S113104000C00000C5EDD3E0DE010D900020E9F7FB
S113105011979AE0ECE6F3E001900D929A95E1F78E
S1131060FE0101900020E9F7319702E210E01183BC
S11310700083CE0148D0FE0101900020E9F73197AA
S113108011830083CE019DDCCE01CCDC28DE82E31B
S1131090FE0111928A95E9F7DF91CF911F910F918B
S11310A00895CF93DF93EC01CBDC8091780390918A
S11310B07903C817D90759F061E081EC93E049DC62
S11310C080917803909179038C179D07A9F760E0CC
S11310D081EC93E03EDCEFE6F0E080818E7F80835C
S11310E01092790310927803DF91CF9108950895B7
S11310F0EE0FFF1F881F8BBF0790F691E02D199408
S113110046E753E01BC0FB01DC010D900020E9F72A
S1131110119701900D920020E1F70895FB01DC0185
S11311208D91019080190110D9F3990B0895FB0159
S1131130DC0101900D920020E1F70895FA01A191DC
S1131140B081009719F41097E1F0CD01DC01CD01D5
S11311500D90002011F4C00113C0FB012191222342
S113116019F02015D9F7F3CFFB012191201519F4BB
S11311701E92119606C02223C1F70D900020A1F7FC
S1131180D001FA01A193B0830895BB274A3031F40A
S1131190992322F4BDE2909581959F4F01C0BB270E
S11311A0FB015527AA27880F991FAA1FA41710F01F
S11311B0A41B83955051B9F7A05DAA3308F0A95D2B
S11311C0A193009779F7B111B1931192CB0100C0AB
S11311D0DC01FC01672F71917723E1F7329704C09A
S11311E07C916D9370836291AE17BF07C8F3089525
S10711F0F894FFCF9D
S11311F4030070616765204D61696E007061676505
S1131204205354415455530050726F6772616D20DA
S11312143120496E69746961746564004472796942
S11312246E67204379636C6520496E2050726F6742
S1131234726573732E2E2E004379636C65203120FE
S1131244496E2050726F67726573732E2E2E00439D
S113125479636C65203220496E2050726F67726521
S113126473732E2E2E004379636C65203320496EEC
S11312742050726F67726573732E2E2E0043796348
S11312846C65203420496E2050726F6772657373E5
S11312942E2E2E004379636C65203520496E205030
S11312A4726F67726573732E2E2E00537461727499
S11312B4007C0070726F6772616D20310070726F10
S11312C46772616D20320070726F6772616D2033D2
S11312D40070726F6772616D2034007031656469E7
S11312E474007374617274006261636B007374627A
S11312F46C6F74796D00656E64626C6F74796D00E3
S11313047265676100726567620072656763007283
S11313146567640072656765007365727669636501
S11313240052454741425400524547454E425400F9
S1131334524547415754594D005245474151545918
S1131344005350494E54594D0071747920006E3045
S11313542E76616C3D00776169742000746578743D
S10913642E7478743D00B4
S9030000FC
