:100000009DC00000BAC00000B8C00000B6C000002B
:10001000B4C00000B2C00000B0C00000AEC000001C
:10002000ACC00000AAC00000A8C00000A6C000002C
:10003000A4C00000A2C00000A0C000009EC000003C
:100040009CC000009AC0000098C0000096C000004C
:1000500040C3000092C0000090C000008EC00000AD
:100060008CC00000C0C2000088C0000086C0000034
:1000700084C0000082C0000080C000007EC000007C
:100080007CC000007AC0000078C0000076C000008C
:1000900074C0000072C0000070C000006EC000009C
:1000A0006CC000006AC0000068C0000066C00000AC
:1000B00064C0000062C0000060C000005EC00000BC
:1000C0005CC000005AC0000058C000001FC2000001
:1000D00054C0000052C0000050C000004EC00000DC
:1000E0004CC000002A014301430143012D013001AE
:1000F0004301340138013C0140018901A201A20100
:10010000A2018C018F01A201930197019B019F0124
:10011000E801010201020102EB01EE010102F2011C
:10012000F601FA01FE0147026002600260024A0223
:100130004D0260025102550259025D0211241FBE98
:10014000CFEFD1E2DEBFCDBF00E00CBF12E0A0E0F8
:10015000B2E0E6E6F0E100E00BBF02C007900D92CE
:10016000A83CB107D9F723E0A8ECB2E001C01D928A
:10017000A035B207E1F702D074C742CF87E690E01E
:10018000F0D387E690E0CCD327D383E092E0DBD3B3
:1001900055D58EE590E0EAD2019609F456D58FEF59
:1001A00097EAA1E681509040A040E1F700C000002E
:1001B00060E080E093E08FD37894C4E1BFEF21EE5C
:1001C00084E0B15020408040E1F700C000008DE0A5
:1001D00092E0EAD38CE393E0F5D3833009F4CCC00A
:1001E00030F4813059F0823009F467C0E7CF8430B1
:1001F00009F421C1823109F47DC1E0CF9FEFA1EE66
:10020000B4E09150A040B040E1F700C000008CE3A2
:1002100093E0D8D3853039F0863009F040C086E1CC
:1002200092E0C2D33CC02FEF81EE94E02150804099
:100230009040E1F700C000008CE393E0C3D390E06E
:10024000FC013797EB30F105F0F48827EE58FF4FAB
:100250008F4F92C680E0B5D516C082E0FBD513C0A3
:1002600066E084E005D50FC06AE088E001D50BC0E8
:100270006EE08CE0FDD407C062E180E1F9D403C0F8
:1002800066E18C2FF5D48CE393E09CD3843659F649
:10029000ECE3F3E0DF012C2F1D922A95E9F78CE3C4
:1002A00093E090D3843609F0A9CFECE3F3E0DF01CB
:1002B0002C2F1D922A95E9F781CF8FEF91EEA4E0C4
:1002C00081509040A040E1F700C000008CE393E033
:1002D00079D3853039F0863009F040C086E192E06C
:1002E00063D33CC0BFEF21EE84E0B150204080409A
:1002F000E1F700C000008CE393E064D390E0FC01E0
:100300003797EB30F105F0F48827E358FF4F8F4F14
:1003100033C688E156D516C08AE19CD513C06EE17C
:100320008CE1A6D40FC062E280E2A2D40BC066E2E8
:1003300084E29ED407C06AE288E29AD403C06EE2E7
:100340008CE296D48CE393E03DD3843659F6ECE30B
:10035000F3E0DF012C2F1D922A95E9F78CE393E05F
:1003600031D3843609F0A9CFECE3F3E0DF012C2F81
:100370001D922A95E9F722CF8FEF91EEA4E08150EC
:100380009040A040E1F700C000008CE393E01AD356
:10039000853039F0863009F040C086E192E004D320
:1003A0003CC0BFEF21EE84E0B15020408040E1F737
:1003B00000C000008CE393E005D390E0FC01379788
:1003C000EB30F105F0F48827E857FF4F8F4FD4C585
:1003D00080E3F7D416C082E33DD513C066E384E31F
:1003E00047D40FC06AE388E343D40BC06EE38CE3C9
:1003F0003FD407C062E480E43BD403C066E484E4F5
:1004000037D48CE393E0DED2843659F6ECE3F3E0A4
:10041000DF012C2F1D922A95E9F78CE393E0D2D2CD
:10042000843609F0A9CFECE3F3E0DF012C2F1D9215
:100430002A95E9F7C3CE8FEF91EEA4E0815090406A
:10044000A040E1F700C000008CE393E0BBD2853010
:1004500039F0863009F040C086E192E0A5D23CC078
:10046000BFEF21EE84E0B15020408040E1F700C0B2
:1004700000008CE393E0A6D290E0FC013797EB30CC
:10048000F105F0F48827ED56FF4F8F4F75C588E4CE
:1004900098D416C08AE4DED413C06EE48CE4E8D3AA
:1004A0000FC062E580E5E4D30BC066E584E5E0D3E8
:1004B00007C06AE588E5DCD303C06EE58CE5D8D3D8
:1004C0008CE393E07FD2843659F6ECE3F3E0DF016E
:1004D0002C2F1D922A95E9F78CE393E073D2843692
:1004E00009F0A9CFECE3F3E0DF012C2F1D922A9550
:1004F000E9F764CE8FEF91EEA4E081509040A040E8
:10050000E1F700C0000080E6EED458CE1F920F92B3
:100510000FB60F9211240BB60F922F933F934F9368
:100520005F936F937F938F939F93AF93BF93CF937B
:10053000EF93FF9329D2C82F1FD2CC33C1F48091FF
:10054000CD02811116C01092CF0281E08093CD02BE
:1005500084E1E8EDF2E0DF01982F1D929A95E9F72A
:10056000ECE3F3E0DF011D928A95E9F728C0CE3372
:1005700011F18091CD02813011F5E091CF02F0E0D0
:10058000E852FD4FC0838091CF028F5F8093CF02EE
:1005900016C068ED72E08CE393E002D581E08093B1
:1005A000CE021092CD0284E1E8EDF2E0DF011D926F
:1005B0008A95E9F704C08091CD02813051F3FF9113
:1005C000EF91CF91BF91AF919F918F917F916F915B
:1005D0005F914F913F912F910F900BBE0F900FBEE7
:1005E0000F901F9018951F920F920FB60F92112423
:1005F0000BB60F922F933F934F935F936F937F931D
:100600008F939F93AF93BF93CF93EF93FF93C4D1F7
:10061000C82FB2D1CC33C1F48091CD02811116C064
:100620001092CF0281E08093CD0284E1E8EDF2E008
:10063000DF01982F1D929A95E9F7ECE3F3E0DF01D3
:100640001D928A95E9F723C0CE3351F18091CD02F6
:100650008130E9F4E091CF02F0E0E852FD4FC08331
:100660008091CF028F5F8093CF0211C068ED72E05E
:100670008CE393E095D481E08093CE021092CD027A
:1006800084E1E8EDF2E0DF011D928A95E9F78091BF
:10069000CF02843150F01092CF021092CD0205C0EB
:1006A0008091CD02813099F7E1CFFF91EF91CF9109
:1006B000BF91AF919F918F917F916F915F914F917A
:1006C0003F912F910F900BBE0F900FBE0F901F9078
:1006D00018951F920F920FB60F9211248F939F932C
:1006E0008091020281508093020280910202811166
:1006F0000CC081E08093CC0287EF92EC9093850050
:100700008093840085E08093810087EF92EC909342
:1007100085008093840085E0809381009F918F9174
:100720000F900FBE0F901F901895F894F999FECF77
:1007300092BD81BD60BDFA9AF99A78940895F999AD
:10074000FECF92BD81BDF89A80B508951F93CF93D7
:10075000DF93EC01172FF894E8DF612FCE010196AB
:10076000E4DF7894DF91CF911F9108950F931F9349
:10077000CF938C01E4DFC82FC8010196E0DF2C2F56
:1007800030E0A901582BCA01CF911F910F91089514
:10079000FC018381811111C030810180F281E02D43
:1007A000229181E090E002C0880F991F3A95E2F70C
:1007B0008095909582238083089530810180F28115
:1007C000E02D229181E090E002C0880F991F3A95B8
:1007D000E2F7822B80830895E4E0F3E081E08383F5
:1007E000808322E031E032832183E8EFF2E013825C
:1007F000108232832183E0E0F3E08383108244E3BC
:1008000050E052834183ECEEF2E08383108248E2B1
:1008100050E052834183E0EDF2E0838396E09083E1
:1008200045E250E052834183E0EFF2E0838365E0EC
:10083000608352834183E4E2F3E0838394E0908316
:1008400052834183ECE1F3E083836083328321832D
:10085000ECEFF2E08383908332832183E0E2F3E0E4
:10086000838393E0908332832183E4EDF2E08383FA
:1008700027E020832BE230E032832183E4EFF2E0B3
:10088000838390838BE091E09283818388EF92E071
:100890007FDF84E093E07CDF80E093E079DF8CEE23
:1008A00092E076DF80ED92E073DF80EF92E070DF20
:1008B00084E293E06DDF8CE193E06ADF8CEF92E0FD
:1008C00067DF80E293E064DF84ED92E061DF84EF34
:1008D00092E05ECF0895613089F4DC013C9111967D
:1008E000ED91FC911297208181E090E002C0880F89
:1008F000991F3A95E2F7822B80830895FC0130819D
:100900000180F281E02D208181E090E002C0880F1B
:10091000991F3A95E2F780959095822380830895F8
:100920009093C5008093C40088E98093C10086E05D
:100930008093C2000895E0ECF0E0908195FFFDCF38
:100940008093C6000895CF93DF93EC0188818823BC
:1009500029F02196F0DF89918111FCCFDF91CF91B1
:1009600008959093D5008093D40088E98093D100B6
:1009700086E08093D2000895E0EDF0E0908195FF4D
:10098000FDCF8093D6000895E0EDF0E080818823CC
:10099000ECF78091D6000895E0ECF0E080818823A8
:1009A000ECF78091C6000895CF93DF93EC01888126
:1009B000882329F02196E0DF89918111FCCFDF9116
:1009C000CF9108950F931F93CF93DF93EC016CE1C8
:1009D00072E0DAD28C016EE172E0CE01D8D2892BBE
:1009E00009F408C168E272E0CE01D1D2892B09F482
:1009F00003C162E372E0CE01CAD2892B09F4FEC0C2
:100A00006CE372E0CE01C3D2892B09F4F9C066E42D
:100A100072E0CE01BCD2892B09F4F4C06DE472E01F
:100A2000CE01B5D2892B09F4EFC063E572E0CE01A7
:100A3000AED2892B09F4EAC068E572E0CE01A7D2F4
:100A4000892B09F4E5C061E672E0CE01A0D2892BC2
:100A500009F4E0C06BE672E0CE0199D2892B09F46B
:100A6000DBC060E772E0CE0192D2892B09F4D6C0D8
:100A700065E772E0CE018BD2892B09F4D1C06AE719
:100A800072E0CE0184D2892B09F4CCC06FE772E00A
:100A9000CE017DD2892B09F4C7C064E872E0CE0193
:100AA00076D2892B09F4C2C06CE872E0C8016FD21B
:100AB000892BE1F46CE172E080E090E065D2DC012A
:100AC0002C9130E0309301022093000211968C911A
:100AD000382B309301022093000284E1ECE3F3E031
:100AE000DF011D928A95E9F789E0A3C063E972E00E
:100AF000C8014DD2892BD9F46CE172E080E090E01E
:100B000043D2FC01208130E03093010220930002A7
:100B10008181382B309301022093000284E1ECE3C1
:100B2000F3E0DF011D928A95E9F78AE082C06BE964
:100B300072E0C8012CD2892BD9F46CE172E080E01C
:100B400090E022D2FC01208130E03093010220931A
:100B500000028181382B309301022093000284E14E
:100B6000ECE3F3E0DF011D928A95E9F78DE061C0C7
:100B700064EA72E0C8010BD2892BD9F46CE172E00F
:100B800080E090E001D2FC01208130E0309301024E
:100B9000209300028181382B3093010220930002C0
:100BA00084E1ECE3F3E0DF011D928A95E9F788E048
:100BB00040C06CEA72E0C801EAD1892BC9F56CE14A
:100BC00072E080E090E0E0D1FC01208130E03093E1
:100BD0000102209300028181382B3093010220937F
:100BE000000284E1ECE3F3E0DF011D928A95E9F76E
:100BF00083E11FC081E01DC082E01BC083E019C0FB
:100C000084E017C085E015C086E013C084E611C0FB
:100C100087E00FC08BE00DC08CE00BC08EE009C0F8
:100C20008FE007C080E105C081E103C082E101C01F
:100C300080E0DF91CF911F910F9108958FEF7BDEC0
:100C40008FEF79DE8FEF77CE0895CF93DF93C0E0FB
:100C5000D0E0CE018BDD019621F460E070E0CE01A2
:100C600075DD2296C236D105A1F7DF91CF910895A7
:100C7000EF92FF920F931F93CF93DF93082F10E013
:100C80000F2EF4E1EF2EF02DC62FD0E0FF24F394C9
:100C90002FEF81EE94E0215080409040E1F700C0BA
:100CA000000084EB92E080DE8091CB0265DE9091C3
:100CB000CB02911112C089EB92E045DEC80156DDEE
:100CC0004AE068E073E09AD188E093E03CDEB6DF6A
:100CD0008091CB028F5F8093CB028CE393E072DE36
:100CE000883009F056C06091000270910102C8017D
:100CF0002DDD1092CB02AFEFB1EE24E0A150B04059
:100D00002040E1F700C0000081EC92E04DDE8091D0
:100D1000CB0232DE9091CB02911112C089EB92E0AE
:100D200012DECE0123DD4AE068E073E067D188E09F
:100D300093E009DE83DF9091CB029F5F9093CB021B
:100D40008CE393E03FDE8D3089F460910002709176
:100D50000102CE01FBDC95E0E3E5F2E0ACE3B3E0B9
:100D600001900D929A95E1F7F092CA028CE393E01C
:100D700029DE843609F0BFCF1092CB028091CA02DF
:100D8000813039F0ECE3F3E0DF012E2D1D922A953E
:100D9000E9F78CE393E016DE843609F079CF109200
:100DA000CB0284E1ECE3F3E0DF011D928A95E9F7E1
:100DB0001092CA02DF91CF911F910F91FF90EF9097
:100DC0000895CF93DF93C82FD0E02FEF81EE94E00A
:100DD000215080409040E1F700C000009091CB028C
:100DE000911112C089EB92E0AEDDCE01BFDC4AE08A
:100DF00068E073E003D188E093E0A5DD1FDF909108
:100E0000CB029F5F9093CB028CE393E0DBDD8930D4
:100E100079F46091000270910102CE0197DC95E0B7
:100E2000E3E5F2E0ACE3B3E001900D929A95E1F7CF
:100E30008CE393E0C7DD843609F0C7CF1092CB0274
:100E400084E1ECE3F3E0DF011D928A95E9F7DF919D
:100E5000CF910895CF93DF93C82FD0E02FEF81EE8D
:100E600094E0215080409040E1F700C00000909154
:100E7000CB02911112C089EB92E065DDCE0176DCE8
:100E80004AE068E073E0BAD088E093E05CDDD6DE4B
:100E90009091CB029F5F9093CB028CE393E092DD25
:100EA0008A3079F46091000270910102CE014EDC2B
:100EB00095E0E3E5F2E0ACE3B3E001900D929A95A2
:100EC000E1F78CE393E07EDD843609F0C7CF109222
:100ED000CB0284E1ECE3F3E0DF011D928A95E9F7B0
:100EE000DF91CF910895CF93DF93C82FD0E02FEFFC
:100EF00081EE94E0215080409040E1F700C0000076
:100F00009091CB02911112C089EB92E01CDDCE01D1
:100F10002DDC4AE068E073E071D088E093E013DDF7
:100F20008DDE9091CB029F5F9093CB028CE393E098
:100F300049DD833179F46091000270910102CE01A4
:100F400005DC95E0E3E5F2E0ACE3B3E001900D925F
:100F50009A95E1F78CE393E035DD843609F0C7CF4D
:100F60001092CB0284E1ECE3F3E0DF011D928A955D
:100F7000E9F7DF91CF910895EE0FFF1F881F8BBF18
:100F80000790F691E02D199448EC52E010C0FB0157
:100F9000DC018D91019080190110D9F3990B08950E
:100FA000FB01DC0101900D920020E1F70895FA01A8
:100FB000A191B081009719F41097E1F0CD01DC0107
:100FC000CD010D90002011F4C00113C0FB0121914F
:100FD000222319F02015D9F7F3CFFB012191201519
:100FE00019F41E92119606C02223C1F70D9000201D
:100FF000A1F7D001FA01A193B0830895BB274A302D
:1010000031F4992322F4BDE2909581959F4F01C060
:10101000BB27FB015527AA27880F991FAA1FA417D2
:1010200010F0A41B83955051B9F7A05DAA3308F0C6
:10103000A95DA193009779F7B111B1931192CB01FA
:1010400000C0DC01FC01672F71917723E1F7329733
:1010500004C07C916D9370836291AE17BF07C8F393
:061060000895F894FFCF93
:1010660003003C70616765204D61696E0061742004
:10107600486F6D6520005374617274007C00707255
:101086006F6772616D20310070726F6772616D20DB
:10109600320070726F6772616D20330070726F6715
:1010A60072616D2034007031656469740073746117
:1010B6007274006261636B007374626C6F74796D35
:1010C60000656E64626C6F74796D007265676100AD
:1010D60072656762007265676300726567640072B5
:1010E60065676500736572766963650052454741B9
:1010F600425400524547454E4254005245474157D7
:1011060054594D0052454741515459005350494E88
:1011160054594D0071747920006E302E76616C3D05
:081126000077616974200000EC
:00000001FF
