S0120000536C6964655F4D61696E2E737265633D
S11300009DC00000BBC00000B9C00000B7C0000024
S1130010B5C00000B3C00000B1C00000AFC0000014
S1130020ADC00000ABC00000A9C00000A7C0000024
S1130030A5C00000A3C00000A1C000009FC0000034
S11300409DC000009BC0000099C0000097C0000044
S1130050A9C4000093C0000091C000008FC000003C
S11300608DC0000029C4000089C0000087C00000C2
S113007085C0000083C0000081C000007FC0000074
S11300807DC000007BC0000079C0000077C0000084
S113009075C0000073C0000071C000006FC0000094
S11300A06DC000006BC0000069C0000067C00000A4
S11300B065C0000063C0000061C000005FC00000B4
S11300C05DC000005BC0000059C0000088C3000090
S11300D055C0000053C0000051C000004FC00000D4
S11300E04DC00000CA01E301E301E301CD01D001E9
S11300F0E301D401D801DC01E0012A0243024302F6
S113010043022D0230024302340238023C02400210
S11301108A02A302A302A3028D029002A302940204
S113012098029C02A002E902020302030203EC0209
S1130130EF020203F302F702FB02FF0211241FBEC7
S1130140CFEFD1E2DEBFCDBF00E00CBF14E0A0E0F2
S1130150B2E0E8EBF6E100E00BBF02C007900D92BD
S1130160A637B107D9F725E0A6E7B4E001C01D9290
S1130170AB37B207E1F703D00C945A0B41CF87E6B3
S113018090E082D587E690E05ED5B0D42FEF8BE780
S113019092E9215080409040E1F700C0000082E0E5
S11301A092E095D58AE092E061D5FBD68EE590E0A9
S11301B067D4019609F403D77894C2E3BFEF21EE24
S11301C084E0B15020408040E1F700C0000089E4A1
S11301D095E0A2D5833009F470C130F4813069F020
S11301E0823009F40AC1EACF823109F425C284318C
S11301F009F42EC2843011F7C0C19FEFA1EEB4E020
S11302009150A040B040E1F700C0000089E495E0BF
S113021083D5853009F4A6C0863009F0E0C02FEFFD
S113022081EE94E0215080409040E1F700C000004E
S113023084E192E01BD5B5D680E292E00E94380AB0
S1130240AFEFBDE329E4A150B0402040E1F700C086
S1130250000084E392E00E94380A80E090E010D429
S11302600E94750A80E592E00E94380A86E090E0D8
S113027007D40E94990A80E690E002D40E94F20911
S113028087E692E00E94380A8AE090E0F9D30E945F
S1130290990A80E690E0F4D30E94F2098EE792E096
S11302A00E94380A8EE090E0EBD30E94990A80E61F
S11302B090E0E6D30E94F20985E992E00E94380AB0
S11302C082E190E0DDD30E94990A80E690E0D8D3E1
S11302D00E94F2098CEA92E00E94380A86E190E0DA
S11302E0CFD30E94990A80E690E0CAD30E94F20913
S11302F083EC92E00E94380A8FEF93EDA0E38150E3
S11303009040A040E1F700C0000084E392E00E9426
S1130310380A82E090E0B4D30E94750ABFEF27EA5E
S113032081E6B15020408040E1F700C0000081EE3A
S113033092E00E94380A9FEFA7EAB1E69150A040EC
S1130340B040E1F700C000008AE092E08FD429D6E3
S113035085E0E2EFF2E0A9E4B5E001900D928A9520
S1130360E1F73DC02FEF81EE94E0215080409040B2
S1130370E1F700C0000089E495E0CED490E0FC01F0
S11303803797EB30F105F8F48827EE58FF4F8F4F7D
S11303900C94BB0A80E0C3D616C082E009D713C010
S11303A066E084E01FD60FC06AE088E01BD60BC06D
S11303B06EE08CE017D607C062E180E113D603C07B
S11303C066E184E10FD689E495E0A6D4843651F63B
S11303D0E9E4F5E0DF012C2F1D922A95E9F789E481
S11303E095E09AD4843609F008CFE9E4F5E0DF011A
S11303F02C2F1D922A95E9F7E1CE8FEF91EEA4E020
S113040081509040A040E1F700C0000089E495E0ED
S113041083D4853039F0863009F041C087EF92E00B
S113042056D43DC0BFEF21EE84E0B150204080405F
S1130430E1F700C0000089E495E06ED490E0FC018F
S11304403797EB30F105F8F48827E358FF4F8F4FC7
S11304500C94BB0A88E163D616C08AE1A9D613C0FE
S11304606EE18CE1BFD50FC062E280E2BBD50BC068
S113047066E284E2B7D507C06AE288E2B3D503C076
S11304806EE28CE2AFD589E495E046D4843651F629
S1130490E9E4F5E0DF012C2F1D922A95E9F789E4C0
S11304A095E03AD4843609F0A8CFE9E4F5E0DF0119
S11304B02C2F1D922A95E9F781CE8FEF91EEA4E0BF
S11304C081509040A040E1F700C0000089E495E02D
S11304D023D4853039F0863009F041C087EF92E0AB
S11304E0F6D33DC0BFEF21EE84E0B1502040804000
S11304F0E1F700C0000089E495E00ED490E0FC012F
S11305003797EB30F105F8F48827E857FF4F8F4F02
S11305100C94BB0A80E303D616C08C2F49D613C0B3
S113052066E384E35FD50FC06AE388E35BD50BC061
S11305306EE38CE357D507C062E480E453D503C06F
S113054066E484E44FD589E495E0E6D3843651F635
S1130550E9E4F5E0DF012C2F1D922A95E9F789E4FF
S113056095E0DAD3843609F0A8CFE9E4F5E0DF01B9
S11305702C2F1D922A95E9F721CE8FEF91EEA4E05E
S113058081509040A040E1F700C0000089E495E06C
S1130590C3D3853039F0863009F040C087EF92E04C
S11305A096D33CC0BFEF21EE84E0B15020408040A0
S11305B0E1F700C0000089E495E0AED390E0FC01CF
S11305C03797EB30F105F0F48827ED56FF4F8F4F46
S11305D0D2C788E4A4D516C08AE4EAD513C06EE471
S11305E08CE400D50FC062E580E5FCD40BC066E561
S11305F084E5F8D407C06AE588E5F4D403C06EE561
S11306008CE5F0D489E495E087D3843659F6E9E49F
S1130610F5E0DF012C2F1D922A95E9F789E495E096
S11306207BD3843609F0A9CFE9E4F5E0DF012C2F70
S11306301D922A95E9F7C2CD8FEF91EEA4E0815087
S11306409040A040E1F700C0000080E6FAD5B6CDA6
S11306506DEF72E089E495E0C3D7892B21F461E062
S11306608FE794E0CBD267E073E089E495E0B8D7F4
S1130670892B21F460E08FE794E0C0D262E173E05B
S113068089E495E0ADD7892B21F461E08DEB94E00A
S1130690B5D26CE173E089E495E0A2D7892B21F40B
S11306A060E08DEB94E0AAD267E273E089E495E020
S11306B097D7892B21F461E08FE095E09FD261E325
S11306C073E089E495E08CD7892B21F460E08FE016
S11306D095E094D26CE373E089E495E081D7892BAB
S11306E021F461E087E095E089D266E473E089E46F
S11306F095E076D7892B21F460E087E095E07ED2FF
S113070061E573E089E495E06BD7892B21F461E01E
S113071089EC94E073D26BE573E089E495E060D7EB
S1130720892B21F460E089EC94E068D266E673E0FA
S113073089E495E055D7892B21F461E08BE095E0BD
S11307405DD264E773E089E495E04AD7892B21F40C
S113075060E08BE095E052D263E873E089E495E0D1
S11307603FD7892B21F461E083E195E047D26AE821
S113077073E089E495E034D7892B21F460E083E1C8
S113078095E03CD262E973E089E495E029D7892BAE
S113079021F461E081EC94E031D26CE973E089E406
S11307A095E01ED7892B21F460E081EC94E026D2F9
S11307B067EA73E089E495E013D7892B11F48FE09D
S11307C011D689E495E0A8D2843609F041CFE9E452
S11307D0F5E0DF012C2F1D922A95E9F7EFCC1F924B
S11307E00F920FB60F9211240BB60F922F933F93D3
S11307F04F935F936F937F938F939F93AF93BF9325
S1130800CF93EF93FF9353D2C82F49D2CC33C1F483
S113081080917C04811116C010927E0481E0809343
S11308207C0482E3E7E8F4E0DF01982F1D929A95B7
S1130830E9F7E9E4F5E0DF011D928A95E9F728C0BC
S1130840CE3311F180917C04813011F5E0917E0466
S1130850F0E0E957FB4FC08380917E048F5F809363
S11308607E0416C067E874E089E495E0C2D681E0AE
S113087080937D0410927C0482E3E7E8F4E0DF01D6
S11308801D928A95E9F704C080917C04813051F36C
S1130890FF91EF91CF91BF91AF919F918F917F91F4
S11308A06F915F914F913F912F910F900BBE0F90DD
S11308B00FBE0F901F9018951F920F920FB60F92B4
S11308C011240BB60F922F933F934F935F936F9323
S11308D07F938F939F93AF93BF93CF93EF93FF93A4
S11308E0EED1C82FDCD1CC33C1F480917C048111CA
S11308F016C010927E0481E080937C0482E3E7E8D2
S1130900F4E0DF01982F1D929A95E9F7E9E4F5E008
S1130910DF011D928A95E9F723C0CE3351F180910E
S11309207C048130E9F4E0917E04F0E0E957FB4F68
S1130930C08380917E048F5F80937E0411C067E83A
S113094074E089E495E055D681E080937D041092AB
S11309507C0482E3E7E8F4E0DF011D928A95E9F77D
S113096080917E04823350F010927E0410927C04B5
S113097005C080917C04813099F7E1CFFF91EF911C
S1130980CF91BF91AF919F918F917F916F915F9123
S11309904F913F912F910F900BBE0F900FBE0F9070
S11309A01F9018951F920F920FB60F9211240BB639
S11309B00F922F933F934F935F936F937F938F93F4
S11309C09F93AF93BF93EF93FF938091780490919B
S11309D07904019690937904809378048091780443
S11309E0909179044AE065ED74E031D682EB93E0AE
S11309F06ED185ED94E06BD182E3E5EDF4E0DF01A7
S1130A001D928A95E9F787EF92EC90938500809385
S1130A10840085E080938100FF91EF91BF91AF91B5
S1130A209F918F917F916F915F914F913F912F9102
S1130A300F900BBE0F900FBE0F901F901895F89457
S1130A40F999FECF92BD81BD60BDFA9AF99A789466
S1130A500895F999FECF92BD81BDF89A80B50895A5
S1130A601F93CF93DF93EC01172FF894E8DF612FE6
S1130A70CE010196E4DF7894DF91CF911F91089520
S1130A800F931F93CF938C01E4DFC82FC801019605
S1130A90E0DF2C2F30E0A901582BCA01CF911F9120
S1130AA00F910895FC018381811111C0308101806F
S1130AB0F281E02D229181E090E002C0880F991F1D
S1130AC03A95E2F78095909582238083089530814A
S1130AD00180F281E02D229181E090E002C0880F34
S1130AE0991F3A95E2F7822B80830895E1EDF4E0B3
S1130AF081E08383808322E031E032832183E5EC4B
S1130B00F4E01382108232832183EDECF4E08383DA
S1130B10108244E350E052834183E9EBF4E08383A1
S1130B20108248E250E052834183EFE7F4E083838C
S1130B3096E0908345E250E052834183EDEBF4E08C
S1130B40838395E0908352834183EFE0F5E08383D0
S1130B5064E0608352834183E7E0F5E0838390831C
S1130B6032832183E9ECF4E083836083328321833D
S1130B70EBE0F5E0838343E0408332832183E3E8C1
S1130B80F4E0838327E020832BE230E03283218367
S1130B90E1ECF4E0838340832BE031E03283218372
S1130BA0E3E1F5E0838390833283218385EC94E051
S1130BB079DF81ED94E076DF8DEC94E073DF89EBEF
S1130BC094E070DF8FE794E06DDF8DEB94E06ADFF3
S1130BD08FE095E067DF87E095E064DF89EC94E0DF
S1130BE061DF8BE095E05EDF83E894E05BDF81EC1E
S1130BF094E058DF83E195E055CF0895613089F49E
S1130C00DC013C911196ED91FC911297208181E0D9
S1130C1090E002C0880F991F3A95E2F7822B8083F7
S1130C200895FC0130810180F281E02D208181E072
S1130C3090E002C0880F991F3A95E2F7809590954D
S1130C408223808308959093C5008093C40088E92B
S1130C508093C10086E08093C2000895E0ECF0E048
S1130C60908195FFFDCF8093C6000895CF93DF93C5
S1130C70EC018881882329F02196F0DF8991811184
S1130C80FCCFDF91CF9108959093D5008093D40049
S1130C9088E98093D10086E08093D2000895E0ED46
S1130CA0F0E0908195FFFDCF8093D6000895E0EDAC
S1130CB0F0E080818823ECF78091D6000895E0EC81
S1130CC0F0E080818823ECF78091C6000895CF93EB
S1130CD0DF93EC018881882329F02196E0DF899154
S1130CE08111FCCFDF91CF91089510928000109272
S1130CF0820087EF92EC909385008093840085E0D6
S1130D0080938100EFE6F0E080818160808310921F
S1130D1079041092780408950F931F93CF93DF936F
S1130D20EC0166EC73E04ED48C0168EC73E0CE0108
S1130D3057D4892B09F40FC162ED73E0CE0150D46E
S1130D40892B09F40AC16CED73E0CE0149D4892BD7
S1130D5009F405C166EE73E0CE0142D4892B09F48F
S1130D6000C160EF73E0CE013BD4892B09F4FBC0D2
S1130D7067EF73E0CE0134D4892B09F4F6C062EF37
S1130D8072E0CE012DD4892B09F4F1C06DEF73E02C
S1130D90CE0126D4892B09F4ECC066E074E0CE01C0
S1130DA01FD4892B09F4E7C060E174E0CE0118D4A4
S1130DB0892B09F4E2C065E174E0CE0111D4892BDA
S1130DC009F4DDC06AE174E0CE010AD4892B09F488
S1130DD0D8C06FE174E0CE0103D4892B09F4D3C0E9
S1130DE064E274E0CE01FCD3892B09F4CEC069E23D
S1130DF074E0CE01F5D3892B09F4C9C061E374E032
S1130E00CE01EED3892B09F4C4C06BE374E0C801AE
S1130E10E7D3892BE1F466EC73E080E090E0D2D371
S1130E20DC012C9130E030930102209300021196F2
S1130E308C91382B309301022093000282E3E9E481
S1130E40F5E0DF011D928A95E9F789E0A5C062E427
S1130E5074E0C801C5D3892BD9F466EC73E080E053
S1130E6090E0B0D3FC01208130E030930102209364
S1130E7000028181382B309301022093000282E327
S1130E80E9E4F5E0DF011D928A95E9F78AE084C080
S1130E906AE474E0C801A4D3892BD9F466EC73E046
S1130EA080E090E08FD3FC01208130E03093010298
S1130EB0209300028181382B309301022093000299
S1130EC082E3E9E4F5E0DF011D928A95E9F78DE01C
S1130ED063C063E574E0C80183D3892BD9F466EC5D
S1130EE073E080E090E06ED3FC01208130E0309329
S1130EF00102209300028181382B30930102209358
S1130F00000282E3E9E4F5E0DF011D928A95E9F746
S1130F1088E042C06BE574E0C80162D3892BD9F53F
S1130F2066EC73E080E090E04DD3FC01208130E07A
S1130F3030930102209300028181382B3093010207
S1130F402093000282E3E9E4F5E0DF011D928A9533
S1130F50E9F783E121C081E01FC082E01DC083E086
S1130F601BC084E019C085E017C086E015C084E684
S1130F7013C087E011C08BE00FC08CE00DC08EE081
S1130F800BC08FE009C080E107C081E105C082E1A8
S1130F9003C084E101C080E0DF91CF911F910F91E4
S1130FA008958FEF5BDE8FEF59DE8FEF57DE82E31C
S1130FB0E5EDF4E0DF011D928A95E9F70895CF93FA
S1130FC0DF93C0E0D0E0CE015BDD019621F460E068
S1130FD070E0CE0145DD2296C236D105A1F7DF913E
S1130FE0CF910895EF92FF920F931F93CF93DF93C6
S1130FF0082F10E00F2EF2E3EF2EF02DC62FD0E0D5
S1131000FF24F3942FEF81EE94E021508040904030
S1131010E1F700C0000090917B04911112C083E6B7
S113102094E024DEC8012CDD4AE065ED74E00FD3C2
S113103085ED94E01BDEB5DF80917B048F5F8093A8
S11310407B0489E495E068DE883009F050C0609143
S1131050000270910102C80103DD10927B04AFEF1E
S1131060B1EE24E0A150B0402040E1F700C0000000
S113107090917B04911112C083E694E0F7DDCE01D8
S1131080FFDC4AE065ED74E0E2D285ED94E0EEDD4C
S113109088DF90917B049F5F90937B0489E495E0C3
S11310A03BDE8D3089F46091000270910102CE0123
S11310B0D7DC95E0E2EFF2E0A9E4B5E001900D920F
S11310C09A95E1F7F0927A0489E495E025DE843676
S11310D009F0C5CF10927B0480917A04813039F0F5
S11310E0E9E4F5E0DF012E2D1D922A95E9F789E464
S11310F095E012DE843609F085CF10927B0482E3FA
S1131100E9E4F5E0DF011D928A95E9F710927A048B
S1131110DF91CF911F910F91FF90EF900895CF939E
S1131120DF93C82FD0E02FEF81EE94E02150804070
S11311309040E1F700C0000090917B04911112C02F
S113114083E694E093DDCE019BDC4AE065ED74E038
S11311507ED285ED94E08ADD24DF90917B049F5F4D
S113116090937B0489E495E0D7DD893079F460912C
S1131170000270910102CE0173DC95E0E2EFF2E02F
S1131180A9E4B5E001900D929A95E1F789E495E020
S1131190C3DD843609F0C7CF10927B0482E3E9E40F
S11311A0F5E0DF011D928A95E9F7DF91CF9108956B
S11311B0CF93DF93C82FD0E02FEF81EE94E021503E
S11311C080409040E1F700C0000090917B049111B1
S11311D012C083E694E04ADDCE0152DC4AE065EDBC
S11311E074E035D285ED94E041DDDBDE90917B0443
S11311F09F5F90937B0489E495E08EDD8A3079F4D7
S11312006091000270910102CE012ADC95E0E2EFC8
S1131210F2E0A9E4B5E001900D929A95E1F789E432
S113122095E07ADD843609F0C7CF10927B0482E31F
S1131230E9E4F5E0DF011D928A95E9F7DF91CF91AA
S11312400895CF93DF93C82FD0E02FEF81EE94E081
S1131250215080409040E1F700C0000090917B0451
S1131260911112C083E694E001DDCE0109DC4AE06D
S113127065ED74E0ECD185ED94E0F8DC92DE9091BC
S11312807B049F5F90937B0489E495E045DD833183
S113129079F46091000270910102CE01E1DB95E0E6
S11312A0E2EFF2E0A9E4B5E001900D929A95E1F73E
S11312B089E495E031DD843609F0C7CF10927B04D0
S11312C082E3E9E4F5E0DF011D928A95E9F7DF9115
S11312D0CF910895CF93DF93C0E0D0E061E089EB34
S11312E094E08CDC80EA8A95F1F760E089EB94E085
S11312F085DC80EA8A95F1F72196C11582E3D80747
S113130069F7C0E0D0E061E089EB94E077DC80E548
S11313108A95F1F760E089EB94E070DC80E58A95CA
S1131320F1F72196C11582E3D80769F7C0E0D0E050
S113133061E089EB94E062DC80E48A95F1F760E097
S113134089EB94E05BDC80E48A95F1F72196C11582
S113135088ECD80769F7DF91CF910895CF93DF9395
S1131360C0E0D0E061E089EB94E048DC80E48A9559
S1131370F1F760E089EB94E041DC80E48A95F1F7D1
S11313802196C11588ECD80769F7C0E0D0E061E088
S113139089EB94E033DC80E58A95F1F760E089EB32
S11313A094E02CDC80E58A95F1F72196C11582E35F
S11313B0D80769F7C0E0D0E061E089EB94E01EDC77
S11313C080EA8A95F1F760E089EB94E017DC80EA23
S11313D08A95F1F72196C11582E3D80769F7DF9161
S11313E0CF9108958F929F92AF92BF92CF92DF9246
S11313F0EF92FF92882399F1F82E6CDFADECFA9E00
S1131400A12D1124A695A695B0E0119720E03CEB00
S113141042E050E0B8D04B015C01672B682B692B8C
S1131420E9F0C12CD12C760161E089EB94E0E6DB94
S11314308AE28A95F1F700C060E089EB94E0DEDB94
S11314408AE28A95F1F700C08FEFC81AD80AE80A31
S1131450F80AC814D904EA04FB0431F77FDFFF90CB
S1131460EF90DF90CF90BF90AF909F908F900895B2
S11314700F931F93CF93DF93BC012FEF81EE94E082
S1131480215080409040E1F700C00000C5EDD4E059
S1131490DE010D900020E9F711979AE0EBE6F4E005
S11314A001900D929A95E1F7FE0101900020E9F771
S11314B0319702E210E011830083CE0186D0FE0151
S11314C001900020E9F7319711830083CE01CEDB30
S11314D0CE01FDDB66DD82E3FE0111928A95E9F718
S11314E0DF91CF911F910F910895CF93DF93EC017A
S11314F0FCDB8091780490917904C817D90759F0DE
S113150061E081EC94E07ADB809178049091790435
S11315108C179D07A9F760E081EC94E06FDBEFE6A0
S1131520F0E080818E7F808310928100DF91CF91E3
S11315300895CF93DF93EC01D8DB809178049091E8
S11315407904C817D90769F08FE19EE40197F1F790
S113155000C0000080917804909179048C179D0755
S113156099F7EFE6F0E080818E7F8083109281000E
S1131570DF91CF910895EE0FFF1F881F8BBF079057
S1131580F691E02D1994B7FF04C003D0821B930B8E
S1131590089509D0A59F900DB49F900DA49F800D30
S11315A0911D11240895A29FB001B39FC001A39F70
S11315B0700D811D1124911DB29F700D811D112488
S11315C0911D089546E754E01BC0FB01DC010D901A
S11315D00020E9F7119701900D920020E1F708959A
S11315E0FB01DC018D91019080190110D9F3990B55
S11315F00895FB01DC0101900D920020E1F70895AC
S1131600FA01A191B081009719F41097E1F0CD018E
S1131610DC01CD010D90002011F4C00113C0FB01C9
S11316202191222319F02015D9F7F3CFFB01219141
S1131630201519F41E92119606C02223C1F70D90AD
S11316400020A1F7D001FA01A193B0830895BB272C
S11316504A3031F4992322F4BDE2909581959F4F4D
S113166001C0BB27FB015527AA27880F991FAA1F72
S1131670A41710F0A41B83955051B9F7A05DAA33A9
S113168008F0A95DA193009779F7B111B193119274
S1131690CB0100C0DC01FC01672F71917723E1F7D6
S11316A0329704C07C916D9370836291AE17BF072B
S10B16B0C8F30895F894FFCF7C
S11316B8030073646A637364620070616765204D34
S11316C861696E0070616765205354415455530035
S11316D850726F6772616D203120496E6974696157
S11316E874656400447279696E67204379636C6534
S11316F820496E2050726F67726573732E2E2E0008
S11317084379636C65203120496E2050726F67728B
S11317186573732E2E2E004379636C65203220493D
S11317286E2050726F67726573732E2E2E00437984
S1131738636C65203320496E2050726F677265733D
S1131748732E2E2E004379636C65203420496E2055
S113175850726F67726573732E2E2E004379636C13
S113176865203520496E2050726F67726573732E39
S11317782E2E00447261696E696E67204379636C2A
S11317886520496E2050726F67726573732E2E2E12
S113179800456E64206F662050726F6772616D2019
S11317A831006261636B005374617274006D6F740D
S11317B86F72415F4F4E006D6F746F72415F4F4699
S11317C846006D6F746F72425F4F4E006D6F746F99
S11317D872425F4F4646006D6F746F72435F4F4E9F
S11317E8006D6F746F72435F4F4646006D6F746F80
S11317F872445F4F4E006D6F746F72445F4F46467C
S1131808006D6F746F72455F4F4E006D6F746F7229
S1131818455F4F4646006D6F746F72445241494E9E
S11318285F4F4E006D6F746F72445241494E5F4F63
S113183846460046414E5F4F4E0046414E5F4F4676
S11318484600424C4F5745525F4F4E00424C4F574B
S113185845525F4F464600535445505045525F4FDA
S11318684E000A74696D6520696E207365636F6E36
S11318786473203D20007C0070726F6772616D2074
S1131888310070726F6772616D20320070726F6719
S113189872616D20330070726F6772616D2034005D
S11318A8703165646974007374617274007374626E
S11318B86C6F74796D00656E64626C6F74796D0019
S11318C872656761007265676200726567630072BA
S11318D86567640072656765007365727669636538
S11318E8007465737462656E6368005245474142CB
S11318F85400524547454E425400524547415754B7
S1131908594D0052454741515459005350494E547A
S1131918594D006E302E76616C3D00746578742ED6
S10919287478743D000018
S9030000FC
