S0120000536C6964655F4D61696E2E737265633D
S113000071C000008EC000008CC000008AC00000D7
S113001088C0000086C0000084C0000082C00000C8
S113002080C000007EC000007CC000007AC00000D8
S113003078C0000076C0000074C0000072C00000E8
S113004070C000006EC000006CC000006AC00000F8
S113005086C1000066C0000064C0000062C00000E9
S113006060C0000006C100005CC000005AC000006F
S113007058C0000056C0000054C0000052C0000028
S113008050C000004EC000004CC000004AC0000038
S113009048C0000046C0000044C0000042C0000048
S11300A040C000003EC000003CC000003AC0000058
S11300B038C0000036C0000034C0000032C0000068
S11300C030C000002EC000002CC0000065C000003D
S11300D028C0000026C0000024C0000022C0000088
S11300E020C0000011241FBECFEFD1E2DEBFCDBF80
S11300F000E00CBF12E0A0E0B2E0E0EFF5E000E0C9
S11301000BBF02C007900D92AC30B107D9F722E0C3
S1130110ACE0B2E001C01D92AC35B207E1F702D009
S113012065C26ECF87E690E00FD287E690E0EBD110
S113013099D181E092E0FAD12AD28EE590E05CD1A7
S1130140019609F42BD28FEF97EA21E68150904073
S11301502040E1F700C0000060E08CE292E0AED104
S1130160C0E0DDE761E084E292E0A8D184E690E0BB
S113017028D260E084E292E0A1D184E690E021D22A
S1130180219781F78FEF97EA21E681509040204034
S1130190E1F700C00000E4CF1F920F920FB60F9258
S11301A011240BB60F922F933F934F935F936F934A
S11301B07F938F939F93AF93BF93CF93EF93FF93CB
S11301C0D6D1C82FCCD1CC33C1F480910D0281118A
S11301D016C010920F0281E080930D0284E1E0E1E9
S11301E0F2E0DF01982F1D929A95E9F7E8E4F2E036
S11301F0DF011D928A95E9F728C0CE3311F1809171
S11302000D02813011F5E0910F02F0E0E05FFD4F47
S1130210C08380910F028F5F80930F0216C060E14C
S113022072E088E492E0DBD181E080930E021092C8
S11302300D0284E1E0E1F2E0DF011D928A95E9F725
S113024004C080910D02813051F3FF91EF91CF9161
S1130250BF91AF919F918F917F916F915F914F91DA
S11302603F912F910F900BBE0F900FBE0F901F90D8
S113027018951F920F920FB60F9211240BB60F927E
S11302802F933F934F935F936F937F938F939F939A
S1130290AF93BF93CF93EF93FF9371D1C82F5FD1E7
S11302A0CC33C1F480910D02811116C010920F025B
S11302B081E080930D0284E1E0E1F2E0DF01982F18
S11302C01D929A95E9F7E8E4F2E0DF011D928A9520
S11302D0E9F723C0CE3351F180910D028130E9F466
S11302E0E0910F02F0E0E05FFD4FC08380910F02C8
S11302F08F5F80930F0211C060E172E088E492E0A6
S11303006ED181E080930E0210920D0284E1E0E14F
S1130310F2E0DF011D928A95E9F780910F028431A2
S113032050F010920F0210920D0205C080910D0240
S1130330813099F7E1CFFF91EF91CF91BF91AF91C8
S11303409F918F917F916F915F914F913F912F91E9
S11303500F900BBE0F900FBE0F901F9018951F9219
S11303600F920FB60F9211248F939F9380910002E6
S11303708150809300028091000281110CC081E0C1
S113038080930C0287EF92EC909385008093840015
S113039085E08093810087EF92EC909385008093B1
S11303A0840085E0809381009F918F910F900FBE10
S11303B00F901F901895F894F999FECF92BD81BDC6
S11303C060BDFA9AF99A78940895F999FECF92BD8E
S11303D081BDF89A80B508951F93CF93DF93EC0104
S11303E0172FF894E8DF612FCE010196E4DF7894AB
S11303F0DF91CF911F9108950F931F93CF938C0199
S1130400E4DFC82FC8010196E0DF2C2F30E0A901FA
S1130410582BCA01CF911F910F910895FC0183813C
S1130420811111C030810180F281E02D229181E09F
S113043090E002C0880F991F3A95E2F78095909555
S113044082238083089530810180F281E02D2291FE
S113045081E090E002C0880F991F3A95E2F7822B61
S113046080830895E0E3F2E081E08383808322E0E7
S113047031E032832183E8E2F2E013821082328396
S11304802183ECE2F2E08383108224E330E03283C0
S11304902183E4E2F2E08383108288E290E0928395
S11304A0818388E292E0BADF80E392E0B7DF8CE2F6
S11304B092E0B4DF84E292E0B1CF0895613089F430
S11304C0DC013C911196ED91FC911297208181E021
S11304D090E002C0880F991F3A95E2F7822B80833F
S11304E00895FC0130810180F281E02D208181E0BA
S11304F090E002C0880F991F3A95E2F78095909595
S11305008223808308959093C5008093C40088E972
S11305108093C10086E08093C2000895E0ECF0E08F
S1130520908195FFFDCF8093C6000895CF93DF930C
S1130530EC018881882329F02196F0DF89918111CB
S1130540FCCFDF91CF9108959093D5008093D40090
S113055088E98093D10086E08093D2000895E0ED8D
S1130560F0E0908195FFFDCF8093D6000895E0EDF3
S1130570F0E080818823ECF78091D6000895E0ECC8
S1130580F0E080818823ECF78091C60008958FEF16
S1130590C5DF8FEFC3DF8FEFC1CF0895CF93DF9314
S11305A0C0E0D0E0CE0128DF019621F460E070E0E5
S11305B0CE0112DF2296C236D105A1F7DF91CF9189
S11305C008959C0121503109181619063CF485E060
S11305D08A95F1F7000021503109C8F70895FB010D
S11305E0DC0101900D920020E1F70895F894FFCF0B
S10F05F03C70616765204D61696E00007D
S9030000FC
