:100000009DC00000BBC00000B9C00000B7C0000028
:10001000B5C00000B3C00000B1C00000AFC0000018
:10002000ADC00000ABC00000A9C00000A7C0000028
:10003000A5C00000A3C00000A1C000009FC0000038
:100040009DC000009BC0000099C0000097C0000048
:1000500075C4000093C0000091C000008FC0000074
:100060008DC00000F5C3000089C0000087C00000FB
:1000700085C0000083C0000081C000007FC0000078
:100080007DC000007BC0000079C0000077C0000088
:1000900075C0000073C0000071C000006FC0000098
:1000A0006DC000006BC0000069C0000067C00000A8
:1000B00065C0000063C0000061C000005FC00000B8
:1000C0005DC000005BC0000059C0000054C30000C8
:1000D00055C0000053C0000051C000004FC00000D8
:1000E0004DC00000A101BA01BA01BA01A401A701E3
:1000F000BA01AB01AF01B301B70100021902190245
:1001000019020302060219020A020E021202160264
:100110005F02780278027802620265027802690260
:100120006D0271027502BE02D702D702D702C10268
:10013000C402D702C802CC02D002D40211241FBECE
:10014000CFEFD1E2DEBFCDBF00E00CBF14E0A0E0F6
:10015000B2E0EAE8F4E100E00BBF02C007900D92C4
:10016000AE38B107D9F725E0AEE8B4E001C01D9282
:10017000A339B207E1F703D00C94430A41CF87E6D5
:1001800090E04ED587E690E02AD57CD42FEF83ED22
:1001900090E3215080409040E1F700C0000082E0F1
:1001A00092E061D58AE092E02DD5C7D68EE590E049
:1001B00033D4019609F4CFD661E085EE94E0EAD419
:1001C0007894C2E3BFEF21EE84E0B150204080403C
:1001D000E1F700C0000081E695E06AD5833009F4BC
:1001E00042C130F4813069F0823009F4DDC0EACFD9
:1001F000823109F4F6C1843109F4FFC1843011F76A
:1002000091C19FEFA1EEB4E09150A040B040E1F762
:1002100000C0000081E695E04BD5853009F479C037
:10022000863009F0B3C02FEF81EE94E0215080407A
:100230009040E1F700C0000084E192E0E3D47DD675
:1002400080E292E00E943F09AFEFBDE329E4A150B4
:10025000B0402040E1F700C0000084E392E00E943B
:100260003F0980E090E0D8D30E947C0980E592E0CD
:100270000E943F0984E090E0CFD367E974E00E94D8
:10028000A00986E090E0C8D30E94A10987E692E029
:10029000F6D788E090E0C0D365ED74E00E94A00935
:1002A0008EE792E0ECD78CE090E0B6D367E275E0A1
:1002B0000E94A00985E992E0E2D780E190E0ACD30A
:1002C0006FE175E00E94A0098CEA92E0D8D784E142
:1002D00090E0A2D361EE74E00E94A00983EC92E06A
:1002E000CED78FEF93EDA0E381509040A040E1F78F
:1002F00000C0000081EE92E0C2D782E090E08CD393
:10030000FBD7E1E6F5E0DF012C2F1D922A95E9F7F6
:100310003DC08FEF91EEA4E081509040A040E1F706
:1003200000C0000081E695E0C3D490E0FC0137975F
:10033000EB30F105F8F48827EE58FF4F8F4F0C94FF
:10034000C30980E0C1D616C082E007D713C066E0BB
:1003500084E014D60FC06AE088E010D60BC06EE0CF
:100360008CE00CD607C062E180E108D603C066E1EC
:1003700084E104D681E695E09BD4843651F6E1E62B
:10038000F5E0DF012C2F1D922A95E9F781E695E033
:100390008FD4843609F035CFE1E6F5E0DF012C2F6C
:1003A0001D922A95E9F70ECF8FEF91EEA4E08150D0
:1003B0009040A040E1F700C0000081E695E078D4CD
:1003C000853039F0863009F040C081E193E04BD4AC
:1003D0003CC0BFEF21EE84E0B15020408040E1F707
:1003E00000C0000081E695E063D490E0FC013797FF
:1003F000EB30F105F0F48827E358FF4F8F4FC3C768
:1004000088E162D616C08AE1A8D613C06EE18CE1FD
:10041000B5D50FC062E280E2B1D50BC066E284E2DE
:10042000ADD507C06AE288E2A9D503C06EE28CE2CE
:10043000A5D581E695E03CD4843659F6E1E6F5E0B1
:10044000DF012C2F1D922A95E9F781E695E030D443
:10045000843609F0A9CFE1E6F5E0DF012C2F1D92EB
:100460002A95E9F7AFCE8FEF91EEA4E0815090404E
:10047000A040E1F700C0000081E695E019D4853086
:1004800039F0863009F040C081E193E0ECD33CC004
:10049000BFEF21EE84E0B15020408040E1F700C082
:1004A000000081E695E004D490E0FC013797EB3042
:1004B000F105F0F48827E857FF4F8F4F64C780E3BA
:1004C00003D616C08C2F49D613C066E384E356D5F5
:1004D0000FC06AE388E352D50BC06EE38CE34ED5C0
:1004E00007C062E480E44AD503C066E484E446D5EC
:1004F00081E695E0DDD3843659F6E1E6F5E0DF01EB
:100500002C2F1D922A95E9F781E695E0D1D3843608
:1005100009F0A9CFE1E6F5E0DF012C2F1D922A9525
:10052000E9F750CE8FEF91EEA4E081509040A040CB
:10053000E1F700C0000081E695E0BAD3853039F0DC
:10054000863009F040C081E193E08DD33CC0BFEF1D
:1005500021EE84E0B15020408040E1F700C000006F
:1005600081E695E0A5D390E0FC013797EB30F105EB
:10057000F0F48827ED56FF4F8F4F05C788E4A4D5C8
:1005800016C08AE4EAD513C06EE48CE4F7D40FC039
:1005900062E580E5F3D40BC066E584E5EFD407C0DF
:1005A0006AE588E5EBD403C06EE58CE5E7D481E627
:1005B00095E07ED3843659F6E1E6F5E0DF012C2F95
:1005C0001D922A95E9F781E695E072D3843609F009
:1005D000A9CFE1E6F5E0DF012C2F1D922A95E9F77E
:1005E000F1CD8FEF91EEA4E081509040A040E1F773
:1005F00000C0000080E6FAD5E5CD67E173E081E652
:1006000095E0D7D6892B21F461E087E994E0C2D246
:1006100061E273E081E695E0CCD6892B21F460E0BD
:1006200087E994E0B7D26CE273E081E695E0C1D649
:10063000892B21F461E085ED94E0ACD266E373E0B0
:1006400081E695E0B6D6892B21F460E085ED94E053
:10065000A1D261E473E081E695E0ABD6892B21F469
:1006600061E087E295E096D26BE473E081E695E085
:10067000A0D6892B21F460E087E295E08BD266E575
:1006800073E081E695E095D6892B21F461E08FE156
:1006900095E080D260E673E081E695E08AD6892B0A
:1006A00021F460E08FE195E075D26BE673E081E6BE
:1006B00095E07FD6892B21F461E081EE94E06AD247
:1006C00065E773E081E695E074D6892B21F460E05C
:1006D00081EE94E05FD260E873E081E695E069D650
:1006E000892B21F461E083E295E054D26EE873E057
:1006F00081E695E05ED6892B21F460E083E295E007
:1007000049D26DE973E081E695E053D6892B21F457
:1007100061E08BE295E03ED264EA73E081E695E029
:1007200048D6892B21F460E08BE295E033D26CEA65
:1007300073E081E695E03DD6892B21F461E089EDF7
:1007400094E028D266EB73E081E695E032D6892BFF
:1007500021F460E089ED94E01DD281E695E0A8D215
:10076000843609F04ACFE1E6F5E0DF012C2F1D9237
:100770002A95E9F727CD1F920F920FB60F921124F9
:100780000BB60F922F933F934F935F936F937F938B
:100790008F939F93AF93BF93CF93EF93FF9353D2D6
:1007A000C82F49D2CC33C1F480919404811116C072
:1007B0001092960481E08093940482E3EFE9F4E0E0
:1007C000DF01982F1D929A95E9F7E1E6F5E0DF0148
:1007D0001D928A95E9F728C0CE3311F180919404D7
:1007E000813011F5E0919604F0E0E156FB4FC083B3
:1007F000809196048F5F8093960416C06FE974E031
:1008000081E695E0DFD581E0809395041092940411
:1008100082E3EFE9F4E0DF011D928A95E9F704C075
:1008200080919404813051F3FF91EF91CF91BF916A
:10083000AF919F918F917F916F915F914F913F9178
:100840002F910F900BBE0F900FBE0F901F90189519
:100850001F920F920FB60F9211240BB60F922F9387
:100860003F934F935F936F937F938F939F93AF9338
:10087000BF93CF93EF93FF93EED1C82FDCD1CC334E
:10088000C1F480919404811116C01092960481E005
:100890008093940482E3EFE9F4E0DF01982F1D9246
:1008A0009A95E9F7E1E6F5E0DF011D928A95E9F70F
:1008B00023C0CE3351F1809194048130E9F4E0916A
:1008C0009604F0E0E156FB4FC083809196048F5F61
:1008D0008093960411C06FE974E081E695E072D5CB
:1008E00081E0809395041092940482E3EFE9F4E0B0
:1008F000DF011D928A95E9F780919604823350F0CA
:10090000109296041092940405C080919404813052
:1009100099F7E1CFFF91EF91CF91BF91AF919F9167
:100920008F917F916F915F914F913F912F910F9098
:100930000BBE0F900FBE0F901F9018951F920F9235
:100940000FB60F9211240BB60F922F933F934F9334
:100950005F936F937F938F939F93AF93BF93EF9327
:10096000FF9380919004909191040196909391044B
:100970008093900480919004909191044AE06DEEF0
:1009800074E04ED581EC93E06ED18DEE94E06BD1A6
:1009900082E3EDEEF4E0DF011D928A95E9F787EF3F
:1009A00092EC909385008093840085E08093810091
:1009B000FF91EF91BF91AF919F918F917F916F9137
:1009C0005F914F913F912F910F900BBE0F900FBEF3
:1009D0000F901F901895F894F999FECF92BD81BDA4
:1009E00060BDFA9AF99A78940895F999FECF92BD6C
:1009F00081BDF89A80B508951F93CF93DF93EC01E2
:100A0000172FF894E8DF612FCE010196E4DF789488
:100A1000DF91CF911F9108950F931F93CF938C0176
:100A2000E4DFC82FC8010196E0DF2C2F30E0A901D8
:100A3000582BCA01CF911F910F910895FC0183811A
:100A4000811111C030810180F281E02D229181E07D
:100A500090E002C0880F991F3A95E2F78095909533
:100A600082238083089530810180F281E02D2291DC
:100A700081E090E002C0880F991F3A95E2F7822B3F
:100A800080830895E9EEF4E081E08383808322E0AF
:100A900031E032832183EDEDF4E013821082328362
:100AA0002183E5EEF4E08383108244E350E0528337
:100AB0004183E1EDF4E08383108248E250E0528309
:100AC0004183E7E9F4E0838396E0908345E250E0D8
:100AD00052834183E5EDF4E0838395E09083528374
:100AE0004183E7E2F5E0838364E0608352834183DE
:100AF000EFE1F5E08383908332832183E1EEF4E03C
:100B00008383608332832183E3E2F5E0838343E0E0
:100B1000408332832183EBE9F4E0838327E0208361
:100B20002BE230E032832183E9EDF4E083834083DC
:100B30002BE031E032832183EBE2F5E08383908385
:100B4000328321838DED94E079DF89EE94E076DFC6
:100B500085EE94E073DF81ED94E070DF87E994E047
:100B60006DDF85ED94E06ADF87E295E067DF8FE176
:100B700095E064DF81EE94E061DF83E295E05EDF83
:100B80008BE994E05BDF89ED94E058DF8BE295E040
:100B900055CF0895613089F4DC013C911196ED91B7
:100BA000FC911297208181E090E002C0880F991F8C
:100BB0003A95E2F7822B80830895FC013081018011
:100BC000F281E02D208181E090E002C0880F991F22
:100BD0003A95E2F7809590958223808308959093CB
:100BE000C5008093C40088E98093C10086E08093AB
:100BF000C2000895E0ECF0E0908195FFFDCF809376
:100C0000C6000895CF93DF93EC018881882329F0F3
:100C10002196F0DF89918111FCCFDF91CF9108956A
:100C20009093D5008093D40088E98093D10086E02A
:100C30008093D2000895E0EDF0E0908195FFFDCF24
:100C40008093D6000895E0EDF0E080818823ECF7F2
:100C50008091D6000895E0ECF0E080818823ECF7E5
:100C60008091C6000895CF93DF93EC01888188239B
:100C700029F02196E0DF89918111FCCFDF91CF919E
:100C80000895109280001092820087EF92EC90936A
:100C900085008093840085E080938100EFE6F0E09A
:100CA0008081816080831092910410929004089555
:100CB0000F931F93CF93DF93EC0165ED73E06BD33C
:100CC0008C0167ED73E0CE0174D3892B09F40FC159
:100CD00061EE73E0CE016DD3892B09F40AC16BEE8E
:100CE00073E0CE0166D3892B09F405C165EF73E08B
:100CF000CE015FD3892B09F400C16FEF73E0CE0101
:100D000058D3892B09F4FBC066E074E0CE0151D3BF
:100D1000892B09F4F6C06CE074E0CE014AD3892B2C
:100D200009F4F1C061E174E0CE0143D3892B09F4E9
:100D3000ECC06AE174E0CE013CD3892B09F4E7C032
:100D400064E274E0CE0135D3892B09F4E2C069E294
:100D500074E0CE012ED3892B09F4DDC06EE274E07D
:100D6000CE0127D3892B09F4D8C063E374E0CE0108
:100D700020D3892B09F4D3C068E374E0CE0119D3E2
:100D8000892B09F4CEC06DE374E0CE0112D3892B18
:100D900009F4C9C065E474E0CE010BD3892B09F4D2
:100DA000C4C06FE474E0C80104D3892BE1F465ED9D
:100DB00073E080E090E0EFD2DC012C9130E03093E2
:100DC00001022093000211968C91382B309301027E
:100DD0002093000282E3E1E6F5E0DF011D928A95AF
:100DE000E9F789E0A5C066E574E0C801E2D2892B85
:100DF000D9F465ED73E080E090E0CDD2FC01208174
:100E000030E030930102209300028181382B30932F
:100E100001022093000282E3E1E6F5E0DF011D928A
:100E20008A95E9F78AE084C06EE574E0C801C1D212
:100E3000892BD9F465ED73E080E090E0ACD2FC0141
:100E4000208130E030930102209300028181382B11
:100E5000309301022093000282E3E1E6F5E0DF0136
:100E60001D928A95E9F78DE063C067E674E0C801DA
:100E7000A0D2892BD9F465ED73E080E090E08BD2AD
:100E8000FC01208130E03093010220930002818137
:100E9000382B309301022093000282E3E1E6F5E073
:100EA000DF011D928A95E9F788E042C06FE674E0A1
:100EB000C8017FD2892BD9F565ED73E080E090E021
:100EC0006AD2FC01208130E03093010220930002BD
:100ED0008181382B309301022093000282E3E1E606
:100EE000F5E0DF011D928A95E9F783E121C081E0F9
:100EF0001FC082E01DC083E01BC084E019C085E0F4
:100F000017C086E015C084E613C087E011C08BE0EF
:100F10000FC08CE00DC08EE00BC08FE009C080E1F7
:100F200007C081E105C082E103C084E101C080E027
:100F3000DF91CF911F910F9108958FEF5BDE8FEFBF
:100F400059DE8FEF57DE82E3EDEEF4E0DF011D9214
:100F50008A95E9F70895CF93DF93C0E0D0E0CE0102
:100F60005BDD019621F460E070E0CE0145DD229664
:100F7000C236D105A1F7DF91CF910895EF92FF928C
:100F80000F931F93CF93DF93082F10E00F2EF2E300
:100F9000EF2EF02DC62FD0E0FF24F3942FEF81EE3B
:100FA00094E0215080409040E1F700C0000087E7C6
:100FB00094E059DE809193043EDE90919304911168
:100FC00012C08CE794E01EDEC80126DD4AE06DEE1B
:100FD00074E026D28DEE94E015DEAFDF80919304AD
:100FE0008F5F8093930481E695E062DE883009F09C
:100FF00053C06091000270910102C801FDDC1092A3
:101000009304AFEFB1EE24E0A150B0402040E1F7EF
:1010100000C00000809193040EDE90919304911122
:1010200012C08CE794E0EEDDCE01F6DC4AE06DEE16
:1010300074E0F6D18DEE94E0E5DD7FDF90919304CE
:101040009F5F9093930481E695E032DE8D3089F4C2
:101050006091000270910102CE01CEDC95E0ECE0DF
:10106000F4E0A1E6B5E001900D929A95E1F7F092D7
:10107000920481E695E01CDE843609F0C2CF10921E
:10108000930480919204813039F0E1E6F5E0DF01CC
:101090002E2D1D922A95E9F781E695E009DE84362A
:1010A00009F07CCF1092930482E3E1E6F5E0DF01E2
:1010B0001D928A95E9F710929204DF91CF911F91CA
:1010C0000F91FF90EF900895CF93DF93C82FD0E05A
:1010D0002FEF81EE94E0215080409040E1F700C076
:1010E000000090919304911112C08CE794E08ADD86
:1010F000CE0192DC4AE06DEE74E092D18DEE94E088
:1011000081DD1BDF909193049F5F9093930481E6B0
:1011100095E0CEDD893079F4609100027091010292
:10112000CE016ADC95E0ECE0F4E0A1E6B5E00190E8
:101130000D929A95E1F781E695E0BADD843609F0E3
:10114000C7CF1092930482E3E1E6F5E0DF011D9240
:101150008A95E9F7DF91CF910895CF93DF93C82F58
:10116000D0E02FEF81EE94E0215080409040E1F7F5
:1011700000C0000090919304911112C08CE794E09C
:1011800041DDCE0149DC4AE06DEE74E049D18DEEDF
:1011900094E038DDD2DE909193049F5F90939304A6
:1011A00081E695E085DD8A3079F4609100027091E6
:1011B0000102CE0121DC95E0ECE0F4E0A1E6B5E02F
:1011C00001900D929A95E1F781E695E071DD843604
:1011D00009F0C7CF1092930482E3E1E6F5E0DF0166
:1011E0001D928A95E9F7DF91CF910895CF93DF9310
:1011F000C82FD0E02FEF81EE94E021508040904046
:10120000E1F700C0000090919304911112C08CE7A7
:1012100094E0F8DCCE0100DC4AE06DEE74E000D131
:101220008DEE94E0EFDC89DE909193049F5F9093C4
:10123000930481E695E03CDD833179F4609100020E
:1012400070910102CE01D8DB95E0ECE0F4E0A1E67C
:10125000B5E001900D929A95E1F781E695E028DDE1
:10126000843609F0C7CF1092930482E3E1E6F5E0FB
:10127000DF011D928A95E9F7DF91CF9108950F93D1
:101280001F93CF93DF93BC012FEF81EE94E02150A9
:1012900080409040E1F700C00000CDEED4E0DE01D8
:1012A0000D900020E9F711979AE0E4E8F4E001904E
:1012B0000D929A95E1F7FE0101900020E9F7319730
:1012C00002E210E011830083CE0168D0FE0101909C
:1012D0000020E9F7319711830083CE0193DCCE0122
:1012E000C2DC2BDE82E3FE0111928A95E9F7DF91E1
:1012F000CF911F910F910895CF93DF93EC01C1DC43
:101300008091900490919104C817D90759F061E039
:1013100089ED94E03FDC80919004909191048C17CA
:101320009D07A9F760E089ED94E034DCEFE6F0E09A
:1013300080818E7F808310928100DF91CF9108950C
:101340000895CF93DF93EC019CDC80919004909101
:101350009104C817D90769F08FE19EE40197F1F76E
:1013600000C0000080919004909191048C179D071B
:1013700099F7EFE6F0E080818E7F80831092810004
:10138000DF91CF910895EE0FFF1F881F8BBF07904D
:10139000F691E02D19944EE854E01BC0FB01DC01EE
:1013A0000D900020E9F7119701900D920020E1F7D0
:1013B0000895FB01DC018D91019080190110D9F392
:1013C000990B0895FB01DC0101900D920020E1F7DB
:1013D0000895FA01A191B081009719F41097E1F0F6
:1013E000CD01DC01CD010D90002011F4C00113C02E
:1013F000FB012191222319F02015D9F7F3CFFB012E
:101400002191201519F41E92119606C02223C1F7CE
:101410000D900020A1F7D001FA01A193B0830895A7
:10142000BB274A3031F4992322F4BDE2909581958F
:101430009F4F01C0BB27FB015527AA27880F991F83
:10144000AA1FA41710F0A41B83955051B9F7A05DF3
:10145000AA3308F0A95DA193009779F7B111B19370
:101460001192CB0100C0DC01FC01672F7191772341
:10147000E1F7329704C07C916D9370836291AE174F
:0A148000BF07C8F30895F894FFCFEA
:10148A00030073646A637364620070616765204D68
:10149A0061696E0070616765205354415455530069
:1014AA0050726F6772616D203120496E697469618B
:1014BA0074656400447279696E67204379636C6568
:1014CA0020496E2050726F67726573732E2E2E003C
:1014DA004379636C65203120496E2050726F6772C0
:1014EA006573732E2E2E004379636C652032204972
:1014FA006E2050726F67726573732E2E2E004379B9
:10150A00636C65203320496E2050726F6772657371
:10151A00732E2E2E004379636C65203420496E2089
:10152A0050726F67726573732E2E2E004379636C47
:10153A0065203520496E2050726F67726573732E6D
:10154A002E2E00447261696E696E67204379636C5E
:10155A006520496E2050726F67726573732E2E2E46
:10156A0000456E64206F662050726F6772616D204D
:10157A00312C20506C656173652072656D6F7665DC
:10158A002074686520736C69646520747261792EB1
:10159A00005374617274006D6F746F72415F4F4EC5
:1015AA00006D6F746F72415F4F4646006D6F746FC6
:1015BA0072425F4F4E006D6F746F72425F4F4646C4
:1015CA00006D6F746F72435F4F4E006D6F746F7270
:1015DA00435F4F4646006D6F746F72445F4F4E0013
:1015EA006D6F746F72445F4F4646006D6F746F7211
:1015FA00455F4F4E006D6F746F72455F4F464600F0
:10160A006D6F746F72445241494E5F4F4E006D6F59
:10161A00746F72445241494E5F4F46460046414EEE
:10162A005F4F4E0046414E5F4F464600424C4F5771
:10163A0045525F4F4E00424C4F5745525F4F464608
:10164A00000A74696D6520696E207365636F6E6444
:10165A0073203D20007C0070726F6772616D2031CB
:10166A000070726F6772616D20320070726F6772FC
:10167A00616D20330070726F6772616D2034007083
:10168A003165646974007374617274006261636BBA
:10169A00007374626C6F74796D00656E64626C6F4E
:1016AA0074796D00726567610072656762007265C0
:1016BA0067630072656764007265676500736572C7
:1016CA0076696365007465737462656E6368005257
:1016DA00454741425400524547454E4254005245FF
:1016EA0047415754594D00524547415154590053A7
:1016FA0050494E54594D0071747920006E302E763F
:0E170A00616C3D00746578742E7478743D0037
:00000001FF
