S0120000536C6964655F4D61696E2E737265633D
S113000071C000008EC000008CC000008AC00000D7
S113001088C0000086C0000084C0000082C00000C8
S113002080C000007EC000007CC000007AC00000D8
S113003078C0000076C0000074C0000072C00000E8
S113004070C000006EC000006CC000006AC00000F8
S1130050D9C1000066C0000064C0000062C0000096
S113006060C0000059C100005CC000005AC000001C
S113007058C0000056C0000054C0000052C0000028
S113008050C000004EC000004CC000004AC0000038
S113009048C0000046C0000044C0000042C0000048
S11300A040C000003EC000003CC000003AC0000058
S11300B038C0000036C0000034C0000032C0000068
S11300C030C000002EC000002CC00000B8C00000EA
S11300D028C0000026C0000024C0000022C0000088
S11300E020C0000011241FBECFEFD1E2DEBFCDBF80
S11300F000E00CBF12E0A0E0B2E0E8E5F9E000E0C7
S11301000BBF02C007900D92A431B107D9F722E0CA
S1130110A4E1B2E001C01D92A837B207E1F702D012
S113012019C46ECF87E690E062D287E690E03ED2B3
S1130130ECD181E092E04DD28BD28EE590E0AFD14C
S1130140019609F48CD28FEF97EA21E68150904012
S11301502040E1F700C0000060E084E392E001D2B7
S1130160812C912C0F2EF8ECAF2EF02D0F2EF3E4F2
S1130170BF2EF02DC12CD12C7601082D192DDA2D8E
S1130180CB2D61E08CE292E0ECD1602F712F8D2FAA
S11301909C2F78D260E08CE292E0E3D1602F712F43
S11301A08D2F9C2F6FD2C1148DE7D806E104F10482
S11301B068F428E539E344E35CE3602F712F8D2F65
S11301C09C2FA4D2062F172FD82FC92F91E0C91620
S11301D09AEFD906E104F10468F028E539E344E331
S11301E05CE3602F712F8D2F9C2F91D2062F172F38
S11301F0D82FC92F2FEFC21AD20AE20AF20AC11469
S113020087E7D80681E0E806F10409F0BACF8BE06D
S113021092E010D22AE04CE352E060E077E781E01C
S113022090E059D38CE392E005D29FEF27EA81E670
S1130230915020408040E1F700C000009BCF1F9206
S11302400F920FB60F9211240BB60F922F933F9378
S11302504F935F936F937F938F939F93AF93BF93CA
S1130260CF93EF93FF93D6D1C82FCCD1CC33C1F425
S113027080911502811116C01092170281E08093BB
S1130280150284E1E8E1F2E0DF01982F1D929A95CE
S1130290E9F7E4E6F2E0DF011D928A95E9F728C068
S11302A0CE3311F180911502813011F5E0911702DE
S11302B0F0E0E85EFD4FC083809117028F5F80936A
S11302C0170216C068E172E084E692E0FDD281E094
S11302D0809316021092150284E1E8E1F2E0DF0156
S11302E01D928A95E9F704C080911502813051F37B
S11302F0FF91EF91CF91BF91AF919F918F917F919A
S11303006F915F914F913F912F910F900BBE0F9082
S11303100FBE0F901F9018951F920F920FB60F9259
S113032011240BB60F922F933F934F935F936F93C8
S11303307F938F939F93AF93BF93CF93EF93FF9349
S113034071D1C82F5FD1CC33C1F4809115028111D2
S113035016C01092170281E08093150284E1E8E14F
S1130360F2E0DF01982F1D929A95E9F7E4E6F2E0B6
S1130370DF011D928A95E9F723C0CE3351F18091B4
S113038015028130E9F4E0911702F0E0E85EFD4FD8
S1130390C083809117028F5F8093170211C068E1B8
S11303A072E084E692E090D281E08093160210928B
S11303B0150284E1E8E1F2E0DF011D928A95E9F794
S11303C080911702843150F0109217021092150296
S11303D005C080911502813099F7E1CFFF91EF912B
S11303E0CF91BF91AF919F918F917F916F915F91C9
S11303F04F913F912F910F900BBE0F900FBE0F9016
S11304001F9018951F920F920FB60F9211248F937D
S11304109F9380910002815080930002809100029A
S113042081110CC081E08093140287EF92EC9093C9
S113043085008093840085E08093810087EF92ECAF
S1130440909385008093840085E0809381009F9140
S11304508F910F900FBE0F901F901895F894F999F3
S1130460FECF92BD81BD60BDFA9AF99A7894089541
S1130470F999FECF92BD81BDF89A80B508951F9376
S1130480CF93DF93EC01172FF894E8DF612FCE01AF
S11304900196E4DF7894DF91CF911F9108950F9333
S11304A01F93CF938C01E4DFC82FC8010196E0DFCE
S11304B02C2F30E0A901582BCA01CF911F910F9125
S11304C00895FC018381811111C030810180F28182
S11304D0E02D229181E090E002C0880F991F3A95A7
S11304E0E2F780959095822380830895308101807E
S11304F0F281E02D229181E090E002C0880F991FE3
S11305003A95E2F7822B80830895E8E3F2E081E0F4
S11305108383808322E031E032832183E0E3F2E0CD
S11305201382108232832183E4E3F2E08383108216
S113053024E330E032832183ECE2F2E0838310820F
S113054088E290E09283818380E392E0BADF88E3DB
S113055092E0B7DF84E392E0B4DF8CE292E0B1CFC3
S11305600895613089F4DC013C911196ED91FC9180
S11305701297208181E090E002C0880F991F3A957C
S1130580E2F7822B80830895FC0130810180F2819F
S1130590E02D208181E090E002C0880F991F3A95F8
S11305A0E2F7809590958223808308959093C50007
S11305B08093C40088E98093C10086E08093C200E0
S11305C00895E0ECF0E0908195FFFDCF8093C600A4
S11305D00895CF93DF93EC018881882329F0219635
S11305E0F0DF89918111FCCFDF91CF910895909331
S11305F0D5008093D40088E98093D10086E080936D
S1130600D2000895E0EDF0E0908195FFFDCF809356
S1130610D6000895E0EDF0E080818823ECF7809126
S1130620D6000895E0ECF0E080818823ECF7809117
S1130630C6000895CF93DF93EC018881882329F0C5
S11306402196E0DF89918111FCCFDF91CF9108954C
S11306508FEFB7DF8FEFB5DF8FEFB3CF0895CF9371
S1130660DF93C0E0D0E0CE011ADF019621F460E010
S113067070E0CE0104DF2296C236D105A1F7DF91E6
S1130680CF910895CF92DF92EF92FF920F931F9331
S1130690CF93DF936B017C0120E030E040E85FE31F
S11306A035D0062F172FD82FC92F20E030E0A9010D
S11306B0C701B601E1D018162CF01FC00C2D1D2D5A
S11306C0DE2DCF2D85E08A95F1F7000020E030E0A3
S11306D040E85FE3602F712F8D2F9C2F17D0C62E1B
S11306E0D72EE82EF92E20E030E0A901602F712FDB
S11306F08D2F9C2FC1D018160CF3DF91CF911F9131
S11307000F91FF90EF90DF90CF9008955058BB2742
S1130710AA270ED077C068D030F06DD020F031F425
S11307209F3F11F41EF45DC00EF4E095E7FB53C047
S1130730E92F79D080F3BA17620773078407950706
S113074018F071F49EF591C00EF4E0950B2EBA2FBB
S1130750A02D0B01B90190010C01CA01A0011124C3
S1130760FF27591B99F0593F50F4503E68F11A166F
S1130770F040A22F232F342F4427585FF3CF469500
S113078037952795A795F0405395C9F77EF41F1622
S1130790BA0B620B730B840BBAF09150A1F0FF0FEC
S11307A0BB1F661F771F881FC2F70EC0BA0F621FD8
S11307B0731F841F48F4879577956795B795F795C8
S11307C09E3F08F0B3CF9395880F08F09927EE0F5A
S11307D097958795089597F99F6780E870E060E0A2
S11307E008959FEF80EC089500240A9416161706C6
S11307F018060906089500240A941216130614060E
S113080005060895092E0394000C11F4882352F070
S1130810BB0F40F4BF2B11F460FF04C06F5F7F4F28
S11308208F4F9F4F089557FD9058440F551F59F00F
S11308305F3F71F04795880F97FB991F61F09F3FC9
S113084079F087950895121613061406551FF2CFF2
S11308504695F1DF08C0161617061806991FF1CF42
S113086086957105610508940895E894BB27662769
S11308707727CB0197F9089503D008F48FEF0895F3
S1130880990F0008550FAA0BE0E8FEEF161617069D
S1130890E807F907C0F012161306E407F50798F005
S11308A0621B730B840B950B39F40A2661F0232B1E
S11308B0242B252B21F408950A2609F4A140A6959A
S11308C08FEF811D811D0895FB01DC0101900D92C4
S11308D00020E1F70895BB272A3051F4992342F40C
S11308E0BDE290958095709561957F4F8F4F9F4F96
S11308F001C0BB27FA01A62F621771058105910576
S1130900330B30FB66F0AA27660F771F881F991FE9
S1130910AA1FA21710F0A21B63953850A9F7A05D77
S1130920AA3308F0A95DA19336F7B111B1931082EF
S1130930CA0100C0DC01FC01672F71917723E1F744
S1130940329704C07C916D9370836291AE17BF0798
S10B0950C8F30895F894FFCFE9
S11309583C70616765204D61696E00636F756E74E4
S1070968203D20000A
S9030000FC
