:100000009DC00000BBC00000B9C00000B7C0000028
:10001000B5C00000B3C00000B1C00000AFC0000018
:10002000ADC00000ABC00000A9C00000A7C0000028
:10003000A5C00000A3C00000A1C000009FC0000038
:100040009DC000009BC0000099C0000097C0000048
:10005000A5C4000093C0000091C000008FC0000044
:100060008DC0000025C4000089C0000087C00000CA
:1000700085C0000083C0000081C000007FC0000078
:100080007DC000007BC0000079C0000077C0000088
:1000900075C0000073C0000071C000006FC0000098
:1000A0006DC000006BC0000069C0000067C00000A8
:1000B00065C0000063C0000061C000005FC00000B8
:1000C0005DC000005BC0000059C0000084C3000098
:1000D00055C0000053C0000051C000004FC00000D8
:1000E0004DC00000B401CD01CD01CD01B701BA0171
:1000F000CD01BE01C201C601CA0113022C022C02AD
:100100002C02160219022C021D02210225022902CC
:1001100072028B028B028B02750278028B027C02C8
:10012000800284028802D102EA02EA02EA02D402D0
:10013000D702EA02DB02DF02E302E70211241FBE5C
:10014000CFEFD1E2DEBFCDBF00E00CBF14E0A0E0F6
:10015000B2E0E8EDF4E100E00BBF02C007900D92C1
:10016000A638B107D9F725E0A6E8B4E001C01D9292
:10017000AB38B207E1F703D00C946A0A41CF87E6A7
:1001800090E07ED587E690E05AD5ACD42FEF83ED92
:1001900090E3215080409040E1F700C0000082E0F1
:1001A00092E091D58AE092E05DD5F7D68EE590E0B9
:1001B00063D4019609F4FFD661E08DED94E01AD581
:1001C0007894C2E3BFEF21EE84E0B150204080403C
:1001D000E1F700C0000089E595E09AD5833009F485
:1001E00055C130F4813069F0823009F4F0C0EACFB3
:1001F000823109F409C2843109F412C2843011F742
:10020000A4C19FEFA1EEB4E09150A040B040E1F74F
:1002100000C0000089E595E07BD5853009F48CC0ED
:10022000863009F0C6C02FEF81EE94E02150804067
:100230009040E1F700C0000084E192E013D5ADD614
:1002400080E292E00E946609AFEFBDE329E4A1508D
:10025000B0402040E1F700C0000084E392E00E943B
:10026000660980E090E008D40E94A30980E592E04E
:100270000E94660984E090E0FFD36FE874E00E947A
:10028000C70986E090E0F8D30E94C80987E692E0AB
:100290000E94660988E090E0EFD36DEC74E00E9464
:1002A000C7098EE792E00E9466098CE090E0E4D3F3
:1002B0006FE175E00E94C70985E992E00E94660936
:1002C00080E190E0D9D367E175E00E94C7098CEA2C
:1002D00092E0FCD784E190E0CFD369ED74E00E9416
:1002E000C70983EC92E0F2D78FEF93EDA0E3815042
:1002F0009040A040E1F700C0000081EE92E0E6D718
:1003000082E090E0B9D30E94A309BFEF27EA81E61B
:10031000B15020408040E1F700C000008AE092E048
:10032000A1D43BD685E0E0E0F3E0A9E5B5E001909B
:100330000D928A95E1F73DC09FEFA1EEB4E0915098
:10034000A040B040E1F700C0000089E595E0E0D4AE
:1003500090E0FC013797EB30F105F8F48827EE5870
:10036000FF4F8F4F0C94EA0980E0D5D616C082E08B
:100370001BD713C066E084E031D60FC06AE088E086
:100380002DD60BC06EE08CE029D607C062E180E17B
:1003900025D603C066E184E121D689E595E0B8D48D
:1003A000843651F6E9E5F5E0DF012C2F1D922A9500
:1003B000E9F789E595E0ACD4843609F022CFE9E588
:1003C000F5E0DF012C2F1D922A95E9F7FBCE8FEF88
:1003D00091EEA4E081509040A040E1F700C0000001
:1003E00089E595E095D4853039F0863009F040C034
:1003F00085E093E068D43CC0BFEF21EE84E0B150CB
:1004000020408040E1F700C0000089E595E080D4FD
:1004100090E0FC013797EB30F105F0F48827E358C2
:10042000FF4F8F4FD7C788E176D616C08AE1BCD67A
:1004300013C06EE18CE1D2D50FC062E280E2CED56E
:100440000BC066E284E2CAD507C06AE288E2C6D57C
:1004500003C06EE28CE2C2D589E595E059D48436BA
:1004600059F6E9E5F5E0DF012C2F1D922A95E9F711
:1004700089E595E04DD4843609F0A9CFE9E5F5E0AA
:10048000DF012C2F1D922A95E9F79CCE8FEF91EE7C
:10049000A4E081509040A040E1F700C0000089E551
:1004A00095E036D4853039F0863009F040C085E0DB
:1004B00093E009D43CC0BFEF21EE84E0B15020406E
:1004C0008040E1F700C0000089E595E021D490E08C
:1004D000FC013797EB30F105F0F48827E857FF4F20
:1004E0008F4F78C780E317D616C08C2F5DD613C008
:1004F00066E384E373D50FC06AE388E36FD50BC06E
:100500006EE38CE36BD507C062E480E467D503C07B
:1005100066E484E463D589E595E0FAD3843659F638
:10052000E9E5F5E0DF012C2F1D922A95E9F789E531
:1005300095E0EED3843609F0A9CFE9E5F5E0DF01D7
:100540002C2F1D922A95E9F73DCE8FEF91EEA4E076
:1005500081509040A040E1F700C0000089E595E09F
:10056000D7D3853039F0863009F040C085E093E07C
:10057000AAD33CC0BFEF21EE84E0B15020408040C0
:10058000E1F700C0000089E595E0C2D390E0FC01EE
:100590003797EB30F105F0F48827ED56FF4F8F4F7A
:1005A00019C788E4B8D516C08AE4FED513C06EE436
:1005B0008CE414D50FC062E580E510D50BC066E56C
:1005C00084E50CD507C06AE588E508D503C06EE56B
:1005D0008CE504D589E595E09BD3843659F6E9E5A9
:1005E000F5E0DF012C2F1D922A95E9F789E595E0CA
:1005F0008FD3843609F0A9CFE9E5F5E0DF012C2F90
:100600001D922A95E9F7DECD8FEF91EEA4E081509F
:100610009040A040E1F700C0000080E60ED6D2CDA9
:1006200061E087E195E0E6D28BE093E04CD3E9E529
:10063000F5E0DF012C2F1D922A95E9F786E193E082
:1006400042D389E595E03FD38FEF93ECA9E0815049
:100650009040A040E1F700C0000062E273E089E54D
:1006600095E0CED6892B21F461E08FE894E0C2D2E8
:100670006CE273E089E595E0C3D6892B21F460E054
:100680008FE894E0B7D267E373E089E595E0B8D6E8
:10069000892B21F461E08DEC94E0ACD261E473E04D
:1006A00089E595E0ADD6892B21F460E08DEC94E0EE
:1006B000A1D26CE473E089E595E0A2D6892B21F400
:1006C00061E08FE195E096D266E573E089E595E01B
:1006D00097D6892B21F460E08FE195E08BD261E61B
:1006E00073E089E595E08CD6892B21F461E087E100
:1006F00095E080D26BE673E089E595E081D6892BA1
:1007000021F460E087E195E075D266E773E089E562
:1007100095E076D6892B21F461E089ED94E06AD2E8
:1007200060E873E089E595E06BD6892B21F460E001
:1007300089ED94E05FD26BE873E089E595E060D6DF
:10074000892B21F461E08BE195E054D269E973E0F3
:1007500089E595E055D6892B21F460E08BE195E0A1
:1007600049D268EA73E089E595E04AD6892B21F4FD
:1007700061E083E295E03ED26FEA73E089E595E0BF
:100780003FD6892B21F460E083E295E033D267EB1A
:1007900073E089E595E034D6892B21F461E081EDA1
:1007A00094E028D261EC73E089E595E029D6892BA5
:1007B00021F460E081ED94E01DD289E595E0A8D2B6
:1007C000843609F03BCFE9E5F5E0DF012C2F1D92DF
:1007D0002A95E9F7F7CC1F920F920FB60F921124CA
:1007E0000BB60F922F933F934F935F936F937F932B
:1007F0008F939F93AF93BF93CF93EF93FF9353D276
:10080000C82F49D2CC33C1F480918C04811116C019
:1008100010928E0481E080938C0482E3E7E9F4E097
:10082000DF01982F1D929A95E9F7E9E5F5E0DF01E0
:100830001D928A95E9F728C0CE3311F180918C047E
:10084000813011F5E0918E04F0E0E956FB4FC08352
:1008500080918E048F5F80938E0416C067E974E0E8
:1008600089E595E0D6D581E080938D0410928C04C3
:1008700082E3E7E9F4E0DF011D928A95E9F704C01D
:1008800080918C04813051F3FF91EF91CF91BF9112
:10089000AF919F918F917F916F915F914F913F9118
:1008A0002F910F900BBE0F900FBE0F901F901895B9
:1008B0001F920F920FB60F9211240BB60F922F9327
:1008C0003F934F935F936F937F938F939F93AF93D8
:1008D000BF93CF93EF93FF93EED1C82FDCD1CC33EE
:1008E000C1F480918C04811116C010928E0481E0B5
:1008F00080938C0482E3E7E9F4E0DF01982F1D92F6
:100900009A95E9F7E9E5F5E0DF011D928A95E9F7A7
:1009100023C0CE3351F180918C048130E9F4E09111
:100920008E04F0E0E956FB4FC08380918E048F5F08
:1009300080938E0411C067E974E089E595E069D57C
:1009400081E080938D0410928C0482E3E7E9F4E067
:10095000DF011D928A95E9F780918E04823350F071
:1009600010928E0410928C0405C080918C0481300A
:1009700099F7E1CFFF91EF91CF91BF91AF919F9107
:100980008F917F916F915F914F913F912F910F9038
:100990000BBE0F900FBE0F901F9018951F920F92D5
:1009A0000FB60F9211240BB60F922F933F934F93D4
:1009B0005F936F937F938F939F93AF93BF93EF93C7
:1009C000FF93809188049091890401969093890403
:1009D0008093880480918804909189044AE065EEB0
:1009E00074E045D58CEC93E06ED185EE94E06BD14C
:1009F00082E3E5EEF4E0DF011D928A95E9F787EFE7
:100A000092EC909385008093840085E08093810030
:100A1000FF91EF91BF91AF919F918F917F916F91D6
:100A20005F914F913F912F910F900BBE0F900FBE92
:100A30000F901F901895F894F999FECF92BD81BD43
:100A400060BDFA9AF99A78940895F999FECF92BD0B
:100A500081BDF89A80B508951F93CF93DF93EC0181
:100A6000172FF894E8DF612FCE010196E4DF789428
:100A7000DF91CF911F9108950F931F93CF938C0116
:100A8000E4DFC82FC8010196E0DF2C2F30E0A90178
:100A9000582BCA01CF911F910F910895FC018381BA
:100AA000811111C030810180F281E02D229181E01D
:100AB00090E002C0880F991F3A95E2F780959095D3
:100AC00082238083089530810180F281E02D22917C
:100AD00081E090E002C0880F991F3A95E2F7822BDF
:100AE00080830895E1EEF4E081E08383808322E057
:100AF00031E032832183E5EDF4E01382108232830A
:100B00002183EDEDF4E08383108244E350E05283CF
:100B10004183E9ECF4E08383108248E250E05283A1
:100B20004183EFE8F4E0838396E0908345E250E070
:100B300052834183EDECF4E0838395E0908352830C
:100B40004183EFE1F5E0838364E060835283418376
:100B5000E7E1F5E08383908332832183E9EDF4E0DC
:100B60008383608332832183EBE1F5E0838343E079
:100B7000408332832183E3E9F4E0838327E0208309
:100B80002BE230E032832183E1EDF4E08383408384
:100B90002BE031E032832183E3E2F5E0838390832D
:100BA0003283218385ED94E079DF81EE94E076DF76
:100BB0008DED94E073DF89EC94E070DF8FE894E0D2
:100BC0006DDF8DEC94E06ADF8FE195E067DF87E110
:100BD00095E064DF89ED94E061DF8BE195E05EDF15
:100BE00083E994E05BDF81ED94E058DF83E295E0F8
:100BF00055CF0895613089F4DC013C911196ED9157
:100C0000FC911297208181E090E002C0880F991F2B
:100C10003A95E2F7822B80830895FC0130810180B0
:100C2000F281E02D208181E090E002C0880F991FC1
:100C30003A95E2F78095909582238083089590936A
:100C4000C5008093C40088E98093C10086E080934A
:100C5000C2000895E0ECF0E0908195FFFDCF809315
:100C6000C6000895CF93DF93EC018881882329F093
:100C70002196F0DF89918111FCCFDF91CF9108950A
:100C80009093D5008093D40088E98093D10086E0CA
:100C90008093D2000895E0EDF0E0908195FFFDCFC4
:100CA0008093D6000895E0EDF0E080818823ECF792
:100CB0008091D6000895E0ECF0E080818823ECF785
:100CC0008091C6000895CF93DF93EC01888188233B
:100CD00029F02196E0DF89918111FCCFDF91CF913E
:100CE0000895109280001092820087EF92EC90930A
:100CF00085008093840085E080938100EFE6F0E03A
:100D00008081816080831092890410928804089504
:100D10000F931F93CF93DF93EC0160EE73E062D3E8
:100D20008C0162EE73E0CE016BD3892B09F40FC105
:100D30006CEE73E0CE0164D3892B09F40AC166EF2F
:100D400073E0CE015DD3892B09F405C160E074E046
:100D5000CE0156D3892B09F400C16AE074E0CE01BC
:100D60004FD3892B09F4FBC061E174E0CE0148D375
:100D7000892B09F4F6C060E073E0CE0141D3892BE2
:100D800009F4F1C067E174E0CE013AD3892B09F48C
:100D9000ECC060E274E0CE0133D3892B09F4E7C0E4
:100DA0006AE274E0CE012CD3892B09F4E2C06FE231
:100DB00074E0CE0125D3892B09F4DDC064E374E02F
:100DC000CE011ED3892B09F4D8C069E374E0CE01AB
:100DD00017D3892B09F4D3C06EE374E0CE0110D38E
:100DE000892B09F4CEC063E474E0CE0109D3892BCA
:100DF00009F4C9C06CE073E0CE0102D3892B09F479
:100E0000C4C06BE474E0C801FBD2892BE1F460EE4E
:100E100073E080E090E0E6D2DC012C9130E030938A
:100E200001022093000211968C91382B309301021D
:100E30002093000282E3E9E5F5E0DF011D928A9547
:100E4000E9F789E0A5C062E574E0C801D9D2892B31
:100E5000D9F460EE73E080E090E0C4D2FC01208120
:100E600030E030930102209300028181382B3093CF
:100E700001022093000282E3E9E5F5E0DF011D9223
:100E80008A95E9F78AE084C06AE574E0C801B8D2BF
:100E9000892BD9F460EE73E080E090E0A3D2FC01EE
:100EA000208130E030930102209300028181382BB1
:100EB000309301022093000282E3E9E5F5E0DF01CF
:100EC0001D928A95E9F78DE063C063E674E0C8017E
:100ED00097D2892BD9F460EE73E080E090E082D263
:100EE000FC01208130E030930102209300028181D7
:100EF000382B309301022093000282E3E9E5F5E00C
:100F0000DF011D928A95E9F788E042C06BE674E044
:100F1000C80176D2892BD9F560EE73E080E090E0CD
:100F200061D2FC01208130E0309301022093000265
:100F30008181382B309301022093000282E3E9E59E
:100F4000F5E0DF011D928A95E9F783E121C081E098
:100F50001FC082E01DC083E01BC084E019C085E093
:100F600017C086E015C084E613C087E011C08BE08F
:100F70000FC08CE00DC08EE00BC08FE009C080E197
:100F800007C081E105C082E103C084E101C080E0C7
:100F9000DF91CF911F910F9108958FEF5BDE8FEF5F
:100FA00059DE8FEF57DE82E3E5EEF4E0DF011D92BC
:100FB0008A95E9F70895CF93DF93C0E0D0E0CE01A2
:100FC0005BDD019621F460E070E0CE0145DD229604
:100FD000C236D105A1F7DF91CF910895EF92FF922C
:100FE0000F931F93CF93DF93082F10E00F2EF2E3A0
:100FF000EF2EF02DC62FD0E0FF24F3942FEF81EEDB
:1010000094E0215080409040E1F700C000009091B2
:101010008B04911112C083E794E024DEC8012CDD1B
:101020004AE065EE74E023D285EE94E01BDEB5DF86
:1010300080918B048F5F80938B0489E595E068DE57
:10104000883009F050C06091000270910102C8011F
:1010500003DD10928B04AFEFB1EE24E0A150B0405D
:101060002040E1F700C0000090918B04911112C064
:1010700083E794E0F7DDCE01FFDC4AE065EE74E043
:10108000F6D185EE94E0EEDD88DF90918B049F5FD2
:1010900090938B0489E595E03BDE8D3089F4609177
:1010A000000270910102CE01D7DC95E0E0E0F3E0B0
:1010B000A9E5B5E001900D929A95E1F7F0928A04C6
:1010C00089E595E025DE843609F0C5CF10928B04C2
:1010D00080918A04813039F0E9E5F5E0DF012E2DB9
:1010E0001D922A95E9F789E595E012DE843609F02C
:1010F00085CF10928B0482E3E9E5F5E0DF011D92D4
:101100008A95E9F710928A04DF91CF911F910F9190
:10111000FF90EF900895CF93DF93C82FD0E02FEF8B
:1011200081EE94E0215080409040E1F700C0000043
:1011300090918B04911112C083E794E093DDCE016E
:101140009BDC4AE065EE74E092D185EE94E08ADDA6
:1011500024DF90918B049F5F90938B0489E595E049
:10116000D7DD893079F46091000270910102CE01DF
:1011700073DC95E0E0E0F3E0A9E5B5E001900D92C5
:101180009A95E1F789E595E0C3DD843609F0C7CF8C
:1011900010928B0482E3E9E5F5E0DF011D928A9568
:1011A000E9F7DF91CF910895CF93DF93C82FD0E077
:1011B0002FEF81EE94E0215080409040E1F700C095
:1011C000000090918B04911112C083E794E04ADDF6
:1011D000CE0152DC4AE065EE74E049D185EE94E040
:1011E00041DDDBDE90918B049F5F90938B0489E55A
:1011F00095E08EDD8A3079F46091000270910102F1
:10120000CE012ADC95E0E0E0F3E0A9E5B5E001904D
:101210000D929A95E1F789E595E07ADD843609F03B
:10122000C7CF10928B0482E3E9E5F5E0DF011D9260
:101230008A95E9F7DF91CF910895CF93DF93C82F77
:10124000D0E02FEF81EE94E0215080409040E1F714
:1012500000C0000090918B04911112C083E794E0CC
:1012600001DDCE0109DC4AE065EE74E000D185EED7
:1012700094E0F8DC92DE90918B049F5F90938B0456
:1012800089E595E045DD833179F460910002709144
:101290000102CE01E1DB95E0E0E0F3E0A9E5B5E095
:1012A00001900D929A95E1F789E595E031DD84365C
:1012B00009F0C7CF10928B0482E3E9E5F5E0DF0186
:1012C0001D928A95E9F7DF91CF9108950F931F93AF
:1012D000CF93DF93BC012FEF81EE94E0215080404B
:1012E0009040E1F700C00000C5EED4E0DE010D90B3
:1012F0000020E9F711979AE0EBE7F4E001900D92F6
:101300009A95E1F7FE0101900020E9F7319702E29A
:1013100010E011830083CE0168D0FE01019000200F
:10132000E9F7319711830083CE019CDCCE01CBDC41
:1013300034DE82E3FE0111928A95E9F7DF91CF91C5
:101340001F910F910895CF93DF93EC01CADC809138
:10135000880490918904C817D90759F061E081ED9C
:1013600094E048DC80918804909189048C179D0753
:10137000A9F760E081ED94E03DDCEFE6F0E08081EC
:101380008E7F808310928100DF91CF910895089520
:10139000CF93DF93EC01A5DC8091880490918904C0
:1013A000C817D90769F08FE19EE40197F1F700C0F3
:1013B000000080918804909189048C179D0799F70B
:1013C000EFE6F0E080818E7F808310928100DF91D4
:1013D000CF910895EE0FFF1F881F8BBF0790F691E6
:1013E000E02D199446E854E01BC0FB01DC010D9090
:1013F0000020E9F7119701900D920020E1F7089580
:10140000FB01DC018D91019080190110D9F3990B3A
:101410000895FB01DC0101900D920020E1F7089591
:10142000FA01A191B081009719F41097E1F0CD0174
:10143000DC01CD010D90002011F4C00113C0FB01AF
:101440002191222319F02015D9F7F3CFFB01219127
:10145000201519F41E92119606C02223C1F70D9093
:101460000020A1F7D001FA01A193B0830895BB2712
:101470004A3031F4992322F4BDE2909581959F4F33
:1014800001C0BB27FB015527AA27880F991FAA1F58
:10149000A41710F0A41B83955051B9F7A05DAA338F
:1014A00008F0A95DA193009779F7B111B19311925A
:1014B000CB0100C0DC01FC01672F71917723E1F7BC
:1014C000329704C07C916D9370836291AE17BF0711
:0814D000C8F30895F894FFCF62
:1014D800030073646A637364620070616765204D1A
:1014E80061696E007061676520535441545553001B
:1014F80050726F6772616D203120496E697469613D
:1015080074656400447279696E67204379636C6519
:1015180020496E2050726F67726573732E2E2E00ED
:101528004379636C65203120496E2050726F677271
:101538006573732E2E2E004379636C652032204923
:101548006E2050726F67726573732E2E2E0043796A
:10155800636C65203320496E2050726F6772657323
:10156800732E2E2E004379636C65203420496E203B
:1015780050726F67726573732E2E2E004379636CF9
:1015880065203520496E2050726F67726573732E1F
:101598002E2E00447261696E696E67204379636C10
:1015A8006520496E2050726F67726573732E2E2EF8
:1015B80000456E64206F662050726F6772616D20FF
:1015C800312C2072656D6F766520747261792E00FA
:1015D8006261636B005374617274000A746573749A
:1015E80062656E6368000A72656362756666203DAF
:1015F80020006D6F746F72415F4F4E006D6F746F96
:1016080072415F4F4646006D6F746F72425F4F4E76
:10161800006D6F746F72425F4F4646006D6F746F56
:1016280072435F4F4E006D6F746F72435F4F464653
:10163800006D6F746F72445F4F4E006D6F746F7200
:10164800445F4F4646006D6F746F72455F4F4E00A2
:101658006D6F746F72455F4F4646006D6F746F72A1
:10166800445241494E5F4F4E006D6F746F72445241
:1016780041494E5F4F46460046414E5F4F4E004639
:10168800414E5F4F464600424C4F5745525F4F4EC2
:1016980000424C4F5745525F4F4646000A74696DE9
:1016A8006520696E207365636F6E6473203D20004A
:1016B8007C0070726F6772616D20310070726F67A5
:1016C80072616D20320070726F6772616D20330035
:1016D80070726F6772616D2034007031656469746F
:1016E800007374617274007374626C6F74796D0046
:1016F800656E64626C6F74796D0072656761007203
:101708006567620072656763007265676400726589
:1017180067650073657276696365005245474142A3
:101728005400524547454E4254005245474157548C
:10173800594D0052454741515459005350494E5450
:10174800594D006E302E76616C3D00746578742EAC
:061758007478743D0000EE
:00000001FF
