:100000009DC00000BBC00000B9C00000B7C0000028
:10001000B5C00000B3C00000B1C00000AFC0000018
:10002000ADC00000ABC00000A9C00000A7C0000028
:10003000A5C00000A3C00000A1C000009FC0000038
:100040009DC000009BC0000099C0000097C0000048
:1000500086C4000093C0000091C000008FC0000063
:100060008DC0000006C4000089C0000087C00000E9
:1000700085C0000083C0000081C000007FC0000078
:100080007DC000007BC0000079C0000077C0000088
:1000900075C0000073C0000071C000006FC0000098
:1000A0006DC000006BC0000069C0000067C00000A8
:1000B00065C0000063C0000061C000005FC00000B8
:1000C0005DC000005BC0000059C0000065C30000B7
:1000D00055C0000053C0000051C000004FC00000D8
:1000E0004DC00000B201CB01CB01CB01B501B8017D
:1000F000CB01BC01C001C401C80111022A022A02BD
:100100002A02140217022A021B021F0223022702DC
:1001100070028902890289027302760289027A02D8
:100120007E0282028602CF02E802E802E802D202E0
:10013000D502E802D902DD02E102E50211241FBE68
:10014000CFEFD1E2DEBFCDBF00E00CBF14E0A0E0F6
:10015000B2E0ECEAF4E100E00BBF02C007900D92C0
:10016000A039B107D9F725E0A0E9B4E001C01D929C
:10017000A539B207E1F703D00C94540A41CF87E6C2
:1001800090E05FD587E690E03BD58DD42FEF83EDEF
:1001900090E3215080409040E1F700C0000082E0F1
:1001A00092E072D58AE092E03ED5D8D68EE590E016
:1001B00044D4019609F4E0D661E087EE94E0FBD4E4
:1001C0007894C2E3BFEF21EE84E0B150204080403C
:1001D000E1F700C0000083E695E07BD5833009F4A9
:1001E00053C130F4813069F0823009F4EEC0EACFB7
:1001F000823109F407C2843109F410C2843011F746
:10020000A2C19FEFA1EEB4E09150A040B040E1F751
:1002100000C0000083E695E05CD5853009F48AC013
:10022000863009F0C4C02FEF81EE94E02150804069
:100230009040E1F700C0000084E192E0F4D48ED653
:1002400080E292E00E945009AFEFBDE329E4A150A3
:10025000B0402040E1F700C0000084E392E00E943B
:10026000500980E090E0E9D30E948D0980E592E09A
:100270000E94500984E090E0E0D369E974E00E94B4
:10028000B10986E090E0D9D30E94B20987E692E0F6
:100290000E94500988E090E0D0D367ED74E00E949E
:1002A000B1098EE792E0FCD78CE090E0C6D369E21A
:1002B00075E00E94B10985E992E0F2D780E190E013
:1002C000BCD361E275E00E94B1098CEA92E0E8D704
:1002D00084E190E0B2D363EE74E00E94B10983EC54
:1002E00092E0DED78FEF93EDA0E381509040A040E5
:1002F000E1F700C0000081EE92E0D2D782E090E00A
:100300009CD30E948D09BFEF27EA81E6B1502040BF
:100310008040E1F700C000008AE092E084D41ED65D
:1003200085E0E2E1F3E0A3E6B5E001900D928A9565
:10033000E1F73DC09FEFA1EEB4E09150A040B04086
:10034000E1F700C0000083E695E0C3D490E0FC0133
:100350003797EB30F105F8F48827EE58FF4F8F4FB1
:100360000C94D40980E0C1D616C082E007D713C030
:1003700066E084E014D60FC06AE088E010D60BC0B7
:100380006EE08CE00CD607C062E180E108D603C0C5
:1003900066E184E104D683E695E09BD4843651F689
:1003A000E3E6F5E0DF012C2F1D922A95E9F783E6BD
:1003B00095E08FD4843609F024CFE3E6F5E0DF0141
:1003C0002C2F1D922A95E9F7FDCE8FEF91EEA4E038
:1003D00081509040A040E1F700C0000083E695E026
:1003E00078D4853039F0863009F040C087E193E059
:1003F0004BD43CC0BFEF21EE84E0B15020408040A0
:10040000E1F700C0000083E695E063D490E0FC01D2
:100410003797EB30F105F0F48827E358FF4F8F4F03
:10042000C3C788E162D616C08AE1A8D613C06EE1C0
:100430008CE1B5D50FC062E280E2B1D50BC066E2B7
:1004400084E2ADD507C06AE288E2A9D503C06EE2B6
:100450008CE2A5D583E695E03CD4843659F6E3E6F4
:10046000F5E0DF012C2F1D922A95E9F783E695E050
:1004700030D4843609F0A9CFE3E6F5E0DF012C2F74
:100480001D922A95E9F79ECE8FEF91EEA4E0815060
:100490009040A040E1F700C0000083E695E019D449
:1004A000853039F0863009F040C087E193E0ECD325
:1004B0003CC0BFEF21EE84E0B15020408040E1F726
:1004C00000C0000083E695E004D490E0FC0137977B
:1004D000EB30F105F0F48827E857FF4F8F4F64C7E2
:1004E00080E303D616C08C2F49D613C066E384E39D
:1004F00056D50FC06AE388E352D50BC06EE38CE398
:100500004ED507C062E480E44AD503C066E484E4C3
:1005100046D583E695E0DDD3843659F6E3E6F5E08B
:10052000DF012C2F1D922A95E9F783E695E0D1D3C0
:10053000843609F0A9CFE3E6F5E0DF012C2F1D9208
:100540002A95E9F73FCE8FEF91EEA4E081509040DD
:10055000A040E1F700C0000083E695E0BAD3853003
:1005600039F0863009F040C087E193E08DD33CC07C
:10057000BFEF21EE84E0B15020408040E1F700C0A1
:10058000000083E695E0A5D390E0FC013797EB30BF
:10059000F105F0F48827ED56FF4F8F4F05C788E42B
:1005A000A4D516C08AE4EAD513C06EE48CE4F7D46F
:1005B0000FC062E580E5F3D40BC066E584E5EFD4B7
:1005C00007C06AE588E5EBD403C06EE58CE5E7D4A7
:1005D00083E695E07ED3843659F6E3E6F5E0DF0165
:1005E0002C2F1D922A95E9F783E695E072D3843685
:1005F00009F0A9CFE3E6F5E0DF012C2F1D922A9543
:10060000E9F7E0CD8FEF91EEA4E081509040A0405B
:10061000E1F700C0000080E6FAD5D4CD6DE173E0CB
:1006200083E695E0D7D6892B21F461E089E994E04F
:10063000C2D267E273E083E695E0CCD6892B21F441
:1006400060E089E994E0B7D262E373E083E695E085
:10065000C1D6892B21F461E087ED94E0ACD26CE344
:1006600073E083E695E0B6D6892B21F460E087ED50
:1006700094E0A1D267E473E083E695E0ABD6892BE2
:1006800021F461E089E295E096D261E573E083E6CA
:1006900095E0A0D6892B21F460E089E295E08BD229
:1006A0006CE573E083E695E095D6892B21F461E053
:1006B00081E295E080D266E673E083E695E08AD633
:1006C000892B21F460E081E295E075D261E773E067
:1006D00083E695E07FD6892B21F461E083EE94E0F8
:1006E0006AD26BE773E083E695E074D6892B21F438
:1006F00060E083EE94E05FD266E873E083E695E025
:1007000069D6892B21F461E085E295E054D264E951
:1007100073E083E695E05ED6892B21F460E085E204
:1007200095E049D263EA73E083E695E053D6892BDE
:1007300021F461E08DE295E03ED26AEA73E083E65F
:1007400095E048D6892B21F460E08DE295E033D224
:1007500062EB73E083E695E03DD6892B21F461E0FE
:100760008BED94E028D26CEB73E083E695E032D613
:10077000892B21F460E08BED94E01DD283E695E0B7
:10078000A8D2843609F04ACFE3E6F5E0DF012C2F4A
:100790001D922A95E9F716CD1F920F920FB60F9270
:1007A00011240BB60F922F933F934F935F936F9348
:1007B0007F938F939F93AF93BF93CF93EF93FF93C9
:1007C00053D2C82F49D2CC33C1F480919604811101
:1007D00016C01092980481E08093960482E3E1EAC7
:1007E000F4E0DF01982F1D929A95E9F7E3E6F5E032
:1007F000DF011D928A95E9F728C0CE3311F180916F
:100800009604813011F5E0919804F0E0EF55FB4F2C
:10081000C083809198048F5F8093980416C061EA2A
:1008200074E083E695E0DFD581E080939704109231
:10083000960482E3E1EAF4E0DF011D928A95E9F78C
:1008400004C080919604813051F3FF91EF91CF91D4
:10085000BF91AF919F918F917F916F915F914F91D8
:100860003F912F910F900BBE0F900FBE0F901F90D6
:1008700018951F920F920FB60F9211240BB60F927C
:100880002F933F934F935F936F937F938F939F9398
:10089000AF93BF93CF93EF93FF93EED1C82FDCD1EB
:1008A000CC33C1F480919604811116C01092980443
:1008B00081E08093960482E3E1EAF4E0DF01982F7F
:1008C0001D929A95E9F7E3E6F5E0DF011D928A951E
:1008D000E9F723C0CE3351F1809196048130E9F4D9
:1008E000E0919804F0E0EF55FB4FC08380919804AD
:1008F0008F5F8093980411C061EA74E083E695E00D
:1009000072D581E0809397041092960482E3E1EA25
:10091000F4E0DF011D928A95E9F780919804823313
:1009200050F0109298041092960405C0809196049D
:10093000813099F7E1CFFF91EF91CF91BF91AF91C6
:100940009F918F917F916F915F914F913F912F91E7
:100950000F900BBE0F900FBE0F901F9018951F9217
:100960000F920FB60F9211240BB60F922F933F9355
:100970004F935F936F937F938F939F93AF93BF93A7
:10098000EF93FF938091920490919304019690933A
:1009900093048093920480919204909193044AE08E
:1009A0006FEE74E04ED587EC93E06ED18FEE94E05D
:1009B0006BD182E3EFEEF4E0DF011D928A95E9F757
:1009C00087EF92EC909385008093840085E080937C
:1009D0008100FF91EF91BF91AF919F918F917F9196
:1009E0006F915F914F913F912F910F900BBE0F90A0
:1009F0000FBE0F901F901895F894F999FECF92BDF5
:100A000081BD60BDFA9AF99A78940895F999FECF5C
:100A100092BD81BDF89A80B508951F93CF93DF935F
:100A2000EC01172FF894E8DF612FCE010196E4DF87
:100A30007894DF91CF911F9108950F931F93CF93D7
:100A40008C01E4DFC82FC8010196E0DF2C2F30E0D5
:100A5000A901582BCA01CF911F910F910895FC0154
:100A60008381811111C030810180F281E02D2291BA
:100A700081E090E002C0880F991F3A95E2F78095D7
:100A8000909582238083089530810180F281E02D4A
:100A9000229181E090E002C0880F991F3A95E2F719
:100AA000822B80830895EBEEF4E081E083838083E2
:100AB00022E031E032832183EFEDF4E013821082F3
:100AC00032832183E7EEF4E08383108244E350E035
:100AD00052834183E3EDF4E08383108248E250E0E7
:100AE00052834183E9E9F4E0838396E0908345E211
:100AF00050E052834183E7EDF4E0838395E09083F7
:100B000052834183E9E2F5E0838364E060835283AA
:100B10004183E1E2F5E08383908332832183E3EE36
:100B2000F4E08383608332832183E5E2F5E083830D
:100B300043E0408332832183EDE9F4E0838327E0BF
:100B400020832BE230E032832183EBEDF4E08383DA
:100B500040832BE031E032832183EDE2F5E08383B3
:100B60009083328321838FED94E079DF8BEE94E0E4
:100B700076DF87EE94E073DF83ED94E070DF89E940
:100B800094E06DDF87ED94E06ADF89E295E067DF4E
:100B900081E295E064DF83EE94E061DF85E295E039
:100BA0005EDF8DE994E05BDF8BED94E058DF8DE252
:100BB00095E055CF0895613089F4DC013C911196A0
:100BC000ED91FC911297208181E090E002C0880FA6
:100BD000991F3A95E2F7822B80830895FC013081BA
:100BE0000180F281E02D208181E090E002C0880F39
:100BF000991F3A95E2F78095909582238083089516
:100C00009093C5008093C40088E98093C10086E07A
:100C10008093C2000895E0ECF0E0908195FFFDCF55
:100C20008093C6000895CF93DF93EC0188818823D9
:100C300029F02196F0DF89918111FCCFDF91CF91CE
:100C400008959093D5008093D40088E98093D100D3
:100C500086E08093D2000895E0EDF0E0908195FF6A
:100C6000FDCF8093D6000895E0EDF0E080818823E9
:100C7000ECF78091D6000895E0ECF0E080818823C5
:100C8000ECF78091C6000895CF93DF93EC01888143
:100C9000882329F02196E0DF89918111FCCFDF9133
:100CA000CF910895109280001092820087EF92EC0D
:100CB000909385008093840085E080938100EFE627
:100CC000F0E08081816080831092930410929204FE
:100CD00008950F931F93CF93DF93EC016BED73E0B7
:100CE0006BD38C016DED73E0CE0174D3892B09F4C5
:100CF0000FC167EE73E0CE016DD3892B09F40AC1F1
:100D000061EF73E0CE0166D3892B09F405C16BEF67
:100D100073E0CE015FD3892B09F400C165E074E074
:100D2000CE0158D3892B09F4FBC06CE074E0CE01EE
:100D300051D3892B09F4F6C062E173E0CE014AD3A6
:100D4000892B09F4F1C062E174E0CE0143D3892B11
:100D500009F4ECC06BE174E0CE013CD3892B09F4BB
:100D6000E7C065E274E0CE0135D3892B09F4E2C017
:100D70006AE274E0CE012ED3892B09F4DDC06FE264
:100D800074E0CE0127D3892B09F4D8C064E374E062
:100D9000CE0120D3892B09F4D3C069E374E0CE01DE
:100DA00019D3892B09F4CEC06EE374E0CE0112D3BF
:100DB000892B09F4C9C066E474E0CE010BD3892BFA
:100DC00009F4C4C060E574E0C80104D3892BE1F4E0
:100DD0006BED73E080E090E0EFD2DC012C9130E02D
:100DE000309301022093000211968C91382B30939E
:100DF00001022093000282E3E3E6F5E0DF011D92A9
:100E00008A95E9F789E0A5C067E574E0C801E2D2F8
:100E1000892BD9F46BED73E080E090E0CDD2FC013A
:100E2000208130E030930102209300028181382B31
:100E3000309301022093000282E3E3E6F5E0DF0154
:100E40001D928A95E9F78AE084C06FE574E0C801D5
:100E5000C1D2892BD9F46BED73E080E090E0ACD285
:100E6000FC01208130E03093010220930002818157
:100E7000382B309301022093000282E3E3E6F5E091
:100E8000DF011D928A95E9F78DE063C068E674E0A2
:100E9000C801A0D2892BD9F46BED73E080E090E01B
:100EA0008BD2FC01208130E03093010220930002BC
:100EB0008181382B309301022093000282E3E3E624
:100EC000F5E0DF011D928A95E9F788E042C060E70E
:100ED00074E0C8017FD2892BD9F56BED73E080E017
:100EE00090E06AD2FC01208130E03093010220932F
:100EF00000028181382B309301022093000282E3AB
:100F0000E3E6F5E0DF011D928A95E9F783E121C070
:100F100081E01FC082E01DC083E01BC084E019C0D7
:100F200085E017C086E015C084E613C087E011C0D5
:100F30008BE00FC08CE00DC08EE00BC08FE009C0CD
:100F400080E107C081E105C082E103C084E101C006
:100F500080E0DF91CF911F910F9108958FEF5BDEBD
:100F60008FEF59DE8FEF57DE82E3EFEEF4E0DF0123
:100F70001D928A95E9F70895CF93DF93C0E0D0E002
:100F8000CE015BDD019621F460E070E0CE0145DD2D
:100F90002296C236D105A1F7DF91CF910895EF9245
:100FA000FF920F931F93CF93DF93082F10E00F2E24
:100FB000F2E3EF2EF02DC62FD0E0FF24F3942FEFB5
:100FC00081EE94E0215080409040E1F700C00000A5
:100FD00088E794E059DE809195043EDE9091950477
:100FE000911112C08DE794E01EDEC80126DD4AE0B3
:100FF0006FEE74E026D28FEE94E015DEAFDF8091C5
:1010000095048F5F8093950483E695E062DE8830D7
:1010100009F053C06091000270910102C801FDDC2B
:1010200010929504AFEFB1EE24E0A150B040204003
:10103000E1F700C00000809195040EDE90919504C8
:10104000911112C08DE794E0EEDDCE01F6DC4AE0AE
:101050006FEE74E0F6D18FEE94E0E5DD7FDF9091E6
:1010600095049F5F9093950483E695E032DE8D3082
:1010700089F46091000270910102CE01CEDC95E00E
:10108000E2E1F3E0A3E6B5E001900D929A95E1F775
:10109000F092940483E695E01CDE843609F0C2CF1A
:1010A0001092950480919404813039F0E3E6F5E0E4
:1010B000DF012E2D1D922A95E9F783E695E009DEE2
:1010C000843609F07CCF1092950482E3E3E6F5E0E4
:1010D000DF011D928A95E9F710929404DF91CF9178
:1010E0001F910F91FF90EF900895CF93DF93C82F3A
:1010F000D0E02FEF81EE94E0215080409040E1F766
:1011000000C0000090919504911112C08DE794E009
:101110008ADDCE0192DC4AE06FEE74E092D18FEE70
:1011200094E081DD1BDF909195049F5F909395047F
:1011300083E695E0CEDD893079F46091000270910C
:101140000102CE016ADC95E0E2E1F3E0A3E6B5E05E
:1011500001900D929A95E1F783E695E0BADD843629
:1011600009F0C7CF1092950482E3E3E6F5E0DF01D2
:101170001D928A95E9F7DF91CF910895CF93DF9380
:10118000C82FD0E02FEF81EE94E0215080409040B6
:10119000E1F700C0000090919504911112C08DE715
:1011A00094E041DDCE0149DC4AE06FEE74E049D1C4
:1011B0008FEE94E038DDD2DE909195049F5F90939E
:1011C000950483E695E085DD8A3079F4609100022C
:1011D00070910102CE0121DC95E0E2E1F3E0A3E6AB
:1011E000B5E001900D929A95E1F783E695E071DD07
:1011F000843609F0C7CF1092950482E3E3E6F5E068
:10120000DF011D928A95E9F7DF91CF910895CF9381
:10121000DF93C82FD0E02FEF81EE94E02150804083
:101220009040E1F700C0000090919504911112C028
:101230008DE794E0F8DCCE0100DC4AE06FEE74E06C
:1012400000D18FEE94E0EFDC89DE909195049F5FF2
:101250009093950483E695E03CDD833179F46091C9
:10126000000270910102CE01D8DB95E0E2E1F3E0EB
:10127000A3E6B5E001900D929A95E1F783E695E03B
:1012800028DD843609F0C7CF1092950482E3E3E6A7
:10129000F5E0DF011D928A95E9F7DF91CF9108957E
:1012A0000F931F93CF93DF93BC012FEF81EE94E058
:1012B000215080409040E1F700C00000CFEED4E024
:1012C000DE010D900020E9F711979AE0E5E8F4E0DF
:1012D00001900D929A95E1F7FE0101900020E9F747
:1012E000319702E210E011830083CE0168D0FE0145
:1012F00001900020E9F7319711830083CE0193DC40
:10130000CE01C2DC2BDE82E3FE0111928A95E9F761
:10131000DF91CF911F910F910895CF93DF93EC014F
:10132000C1DC8091920490919304C817D90759F0B9
:1013300061E08BED94E03FDC809192049091930406
:101340008C179D07A9F760E08BED94E034DCEFE6A5
:10135000F0E080818E7F808310928100DF91CF91B9
:1013600008950895CF93DF93EC019CDC8091920463
:1013700090919304C817D90769F08FE19EE4019713
:10138000F1F700C0000080919204909193048C17B3
:101390009D0799F7EFE6F0E080818E7F80831092C1
:1013A0008100DF91CF910895EE0FFF1F881F8BBF43
:1013B0000790F691E02D199440E954E01BC0FB0121
:1013C000DC010D900020E9F7119701900D920020AB
:1013D000E1F70895FB01DC018D9101908019011066
:1013E000D9F3990B0895FB01DC0101900D920020C7
:1013F000E1F70895FA01A191B081009719F41097CF
:10140000E1F0CD01DC01CD010D90002011F4C0010F
:1014100013C0FB012191222319F02015D9F7F3CF36
:10142000FB012191201519F41E92119606C022236A
:10143000C1F70D900020A1F7D001FA01A193B0836C
:101440000895BB274A3031F4992322F4BDE29095E8
:1014500081959F4F01C0BB27FB015527AA27880F05
:10146000991FAA1FA41710F0A41B83955051B9F718
:10147000A05DAA3308F0A95DA193009779F7B11197
:10148000B1931192CB0100C0DC01FC01672F719177
:101490007723E1F7329704C07C916D93708362915A
:0C14A000AE17BF07C8F30895F894FFCF03
:1014AC00030073646A637364620070616765204D46
:1014BC0061696E0070616765205354415455530047
:1014CC0050726F6772616D203120496E6974696169
:1014DC0074656400447279696E67204379636C6546
:1014EC0020496E2050726F67726573732E2E2E001A
:1014FC004379636C65203120496E2050726F67729E
:10150C006573732E2E2E004379636C65203220494F
:10151C006E2050726F67726573732E2E2E00437996
:10152C00636C65203320496E2050726F677265734F
:10153C00732E2E2E004379636C65203420496E2067
:10154C0050726F67726573732E2E2E004379636C25
:10155C0065203520496E2050726F67726573732E4B
:10156C002E2E00447261696E696E67204379636C3C
:10157C006520496E2050726F67726573732E2E2E24
:10158C0000456E64206F662050726F6772616D202B
:10159C00312C20506C65617365200A72656D6F7615
:1015AC00652074686520736C696465207472617958
:1015BC002E006261636B005374617274006D6F7402
:1015CC006F72415F4F4E006D6F746F72415F4F468B
:1015DC0046006D6F746F72425F4F4E006D6F746F8B
:1015EC0072425F4F4646006D6F746F72435F4F4E91
:1015FC00006D6F746F72435F4F4646006D6F746F72
:10160C0072445F4F4E006D6F746F72445F4F46466D
:10161C00006D6F746F72455F4F4E006D6F746F721B
:10162C00455F4F4646006D6F746F72445241494E90
:10163C005F4F4E006D6F746F72445241494E5F4F55
:10164C0046460046414E5F4F4E0046414E5F4F4668
:10165C004600424C4F5745525F4F4E00424C4F573D
:10166C0045525F4F4646000A74696D6520696E20CD
:10167C007365636F6E6473203D20007C0070726F25
:10168C006772616D20310070726F6772616D20320C
:10169C000070726F6772616D20330070726F6772C9
:1016AC00616D20340070316564697400737461720B
:1016BC0074007374626C6F74796D00656E64626C27
:1016CC006F74796D00726567610072656762007294
:1016DC0065676300726567640072656765007365B2
:1016EC007276696365007465737462656E63680015
:1016FC0052454741425400524547454E42540052D0
:10170C004547415754594D00524547415154590092
:10171C005350494E54594D0071747920006E302E3F
:10172C0076616C3D00746578742E7478743D00009D
:00000001FF
