:100000009DC00000BAC00000B8C00000B6C000002B
:10001000B4C00000B2C00000B0C00000AEC000001C
:10002000ACC00000AAC00000A8C00000A6C000002C
:10003000A4C00000A2C00000A0C000009EC000003C
:100040009CC000009AC0000098C0000096C000004C
:1000500049C3000092C0000090C000008EC00000A4
:100060008CC00000C9C2000088C0000086C000002B
:1000700084C0000082C0000080C000007EC000007C
:100080007CC000007AC0000078C0000076C000008C
:1000900074C0000072C0000070C000006EC000009C
:1000A0006CC000006AC0000068C0000066C00000AC
:1000B00064C0000062C0000060C000005EC00000BC
:1000C0005CC000005AC0000058C0000028C20000F8
:1000D00054C0000052C0000050C000004EC00000DC
:1000E0004CC000002A014301430143012D013001AE
:1000F0004301340138013C0140018901A201A20100
:10010000A2018C018F01A201930197019B019F0124
:10011000E801010201020102EB01EE010102F2011C
:10012000F601FA01FE0147026002600260024A0223
:100130004D0260025102550259025D0211241FBE98
:10014000CFEFD1E2DEBFCDBF00E00CBF12E0A0E0F8
:10015000B2E0ECE5F0E100E00BBF02C007900D92C9
:10016000A83CB107D9F723E0A8ECB2E001C01D928A
:10017000AC34B207E1F702D06FC742CF87E690E018
:10018000EBD387E690E0C7D330D383E092E0D6D3B9
:1001900050D58EE590E0F3D2019609F451D58FEF5A
:1001A00097EAA1E681509040A040E1F700C000002E
:1001B00060E08CEF92E08AD37894C4E1BFEF21EE47
:1001C00084E0B15020408040E1F700C000008DE0A5
:1001D00092E0E5D388E393E0F0D3833009F4CCC018
:1001E00030F4813059F0823009F467C0E7CF8430B1
:1001F00009F421C1823109F47DC1E0CF9FEFA1EE66
:10020000B4E09150A040B040E1F700C0000088E3A6
:1002100093E0D3D3853039F0863009F040C086E1D1
:1002200092E0BDD33CC02FEF81EE94E0215080409E
:100230009040E1F700C0000088E393E0BED390E077
:10024000FC013797EB30F105F0F48827EE58FF4FAB
:100250008F4F8DC680E0B0D516C082E0F6D513C0B2
:1002600066E084E000D50FC06AE088E0FCD40BC0F3
:100270006EE08CE0F8D407C062E180E1F4D403C002
:1002800066E18C2FF0D488E393E097D3843659F657
:10029000E8E3F3E0DF012C2F1D922A95E9F788E3CC
:1002A00093E08BD3843609F0A9CFE8E3F3E0DF01D4
:1002B0002C2F1D922A95E9F781CF8FEF91EEA4E0C4
:1002C00081509040A040E1F700C0000088E393E037
:1002D00074D3853039F0863009F040C086E192E071
:1002E0005ED33CC0BFEF21EE84E0B150204080409F
:1002F000E1F700C0000088E393E05FD390E0FC01E9
:100300003797EB30F105F0F48827E358FF4F8F4F14
:100310002EC688E151D516C08AE197D513C06EE18B
:100320008CE1A1D40FC062E280E29DD40BC066E2F2
:1003300084E299D407C06AE288E295D403C06EE2F1
:100340008CE291D488E393E038D3843659F6E8E31D
:10035000F3E0DF012C2F1D922A95E9F788E393E063
:100360002CD3843609F0A9CFE8E3F3E0DF012C2F8A
:100370001D922A95E9F722CF8FEF91EEA4E08150EC
:100380009040A040E1F700C0000088E393E015D35F
:10039000853039F0863009F040C086E192E0FFD226
:1003A0003CC0BFEF21EE84E0B15020408040E1F737
:1003B00000C0000088E393E000D390E0FC01379791
:1003C000EB30F105F0F48827E857FF4F8F4FCFC58A
:1003D00080E3F2D416C082E338D513C066E384E329
:1003E00042D40FC06AE388E33ED40BC06EE38CE3D3
:1003F0003AD407C062E480E436D403C066E484E4FF
:1004000032D488E393E0D9D2843659F6E8E3F3E0B6
:10041000DF012C2F1D922A95E9F788E393E0CDD2D6
:10042000843609F0A9CFE8E3F3E0DF012C2F1D9219
:100430002A95E9F7C3CE8FEF91EEA4E0815090406A
:10044000A040E1F700C0000088E393E0B6D2853019
:1004500039F0863009F040C086E192E0A0D23CC07D
:10046000BFEF21EE84E0B15020408040E1F700C0B2
:10047000000088E393E0A1D290E0FC013797EB30D5
:10048000F105F0F48827ED56FF4F8F4F70C588E4D3
:1004900093D416C08AE4D9D413C06EE48CE4E3D3B9
:1004A0000FC062E580E5DFD30BC066E584E5DBD3F2
:1004B00007C06AE588E5D7D303C06EE58CE5D3D3E2
:1004C00088E393E07AD2843659F6E8E3F3E0DF017B
:1004D0002C2F1D922A95E9F788E393E06ED284369B
:1004E00009F0A9CFE8E3F3E0DF012C2F1D922A9554
:1004F000E9F764CE8FEF91EEA4E081509040A040E8
:10050000E1F700C00000BFEF23ED80E3B1502040D1
:100510008040E1F700C0000080E6E0D44FCE1F929B
:100520000F920FB60F9211240BB60F922F933F9399
:100530004F935F936F937F938F939F93AF93BF93EB
:10054000CF93EF93FF931BD2C82F11D2CC33C1F4BA
:100550008091CD02811116C01092CF0281E080936C
:10056000CD0284E1E8EDF2E0DF01982F1D929A952B
:10057000E9F7E8E3F3E0DF011D928A95E9F728C087
:10058000CE3311F18091CD02813011F5E091CF028F
:10059000F0E0E852FD4FC0838091CF028F5F8093DF
:1005A000CF0216C068ED72E088E393E0F4D481E0F6
:1005B0008093CE021092CD0284E1E8EDF2E0DF01FB
:1005C0001D928A95E9F704C08091CD02813051F3E4
:1005D000FF91EF91CF91BF91AF919F918F917F91BB
:1005E0006F915F914F913F912F910F900BBE0F90A4
:1005F0000FBE0F901F9018951F920F920FB60F927B
:1006000011240BB60F922F933F934F935F936F93E9
:100610007F938F939F93AF93BF93CF93EF93FF936A
:10062000B6D1C82FA4D1CC33C1F48091CD028111B1
:1006300016C01092CF0281E08093CD0284E1E8EDF4
:10064000F2E0DF01982F1D929A95E9F7E8E3F3E0D5
:10065000DF011D928A95E9F723C0CE3351F18091D5
:10066000CD028130E9F4E091CF02F0E0E852FD4F95
:10067000C0838091CF028F5F8093CF0211C068ED5D
:1006800072E088E393E087D481E08093CE021092F9
:10069000CD0284E1E8EDF2E0DF011D928A95E9F7F1
:1006A0008091CF02843150F01092CF021092CD028F
:1006B00005C08091CD02813099F7E1CFFF91EF9194
:1006C000CF91BF91AF919F918F917F916F915F91EA
:1006D0004F913F912F910F900BBE0F900FBE0F9037
:1006E0001F9018951F920F920FB60F9211248F939F
:1006F0009F938091020281508093020280910202B6
:1007000081110CC081E08093CC0287EF92EC909332
:1007100085008093840085E08093810087EF92ECD0
:10072000909385008093840085E0809381009F9161
:100730008F910F900FBE0F901F901895F894F99914
:10074000FECF92BD81BD60BDFA9AF99A7894089562
:10075000F999FECF92BD81BDF89A80B508951F9397
:10076000CF93DF93EC01172FF894E8DF612FCE01D0
:100770000196E4DF7894DF91CF911F9108950F9354
:100780001F93CF938C01E4DFC82FC8010196E0DFEF
:100790002C2F30E0A901582BCA01CF911F910F9146
:1007A0000895FC018381811111C030810180F281A3
:1007B000E02D229181E090E002C0880F991F3A95C8
:1007C000E2F780959095822380830895308101809F
:1007D000F281E02D229181E090E002C0880F991F04
:1007E0003A95E2F7822B80830895E0E0F3E081E020
:1007F0008383808322E031E032832183E4EFF2E0DF
:100800001382108232832183ECEFF2E08383108223
:1008100044E350E052834183ECEEF2E083831082A4
:1008200048E250E052834183E0EDF2E0838396E0BA
:10083000908345E250E052834183E0EFF2E083830E
:1008400065E0608352834183E0E2F3E0838394E0D8
:10085000908352834183E8E1F3E0838360833283B2
:100860002183E8EFF2E08383908332832183ECE1FC
:10087000F3E0838393E0908332832183E4EDF2E01D
:10088000838387E080838BE290E09283818384EF8F
:1008900092E087DF80E093E084DF8CEF92E081DFFD
:1008A0008CEE92E07EDF80ED92E07BDF80EF92E0E5
:1008B00078DF80E293E075DF88E193E072DF88EF14
:1008C00092E06FDF8CE193E06CCF0895613089F4A2
:1008D000DC013C911196ED91FC911297208181E011
:1008E00090E002C0880F991F3A95E2F7822B80832F
:1008F0000895FC0130810180F281E02D208181E0AA
:1009000090E002C0880F991F3A95E2F78095909584
:100910008223808308959093C5008093C40088E962
:100920008093C10086E08093C2000895E0ECF0E07F
:10093000908195FFFDCF8093C6000895CF93DF93FC
:10094000EC018881882329F02196F0DF89918111BB
:10095000FCCFDF91CF9108959093D5008093D40080
:1009600088E98093D10086E08093D2000895E0ED7D
:10097000F0E0908195FFFDCF8093D6000895E0EDE3
:10098000F0E080818823ECF78091D6000895E0ECB8
:10099000F0E080818823ECF78091C6000895CF9322
:1009A000DF93EC018881882329F02196E0DF89918B
:1009B0008111FCCFDF91CF9108950F931F93CF93B7
:1009C000DF93EC016CE172E0DAD28C016EE172E04F
:1009D000CE01D8D2892B09F408C168E272E0CE01B9
:1009E000D1D2892B09F403C162E372E0CE01CAD2ED
:1009F000892B09F4FEC06CE372E0CE01C3D2892BCF
:100A000009F4F9C066E472E0CE01BCD2892B09F486
:100A1000F4C06DE472E0CE01B5D2892B09F4EFC0C9
:100A200063E572E0CE01AED2892B09F4EAC068E535
:100A300072E0CE01A7D2892B09F4E5C061E672E02D
:100A4000CE01A0D2892B09F4E0C06BE672E0CE01A2
:100A500099D2892B09F4DBC060E772E0CE0192D213
:100A6000892B09F4D6C065E772E0CE018BD2892BC1
:100A700009F4D1C06AE772E0CE0184D2892B09F46F
:100A8000CCC06FE772E0CE017DD2892B09F4C7C0DC
:100A900064E872E0CE0176D2892B09F4C2C06CE81A
:100AA00072E0C8016FD2892BE1F46CE172E080E062
:100AB00090E065D2DC012C9130E03093010220936C
:100AC000000211968C91382B309301022093000282
:100AD00084E1E8E3F3E0DF011D928A95E9F789E01C
:100AE000A3C063E972E0C8014DD2892BD9F46CE14F
:100AF00072E080E090E043D2FC01208130E030934E
:100B00000102209300028181382B3093010220934F
:100B1000000284E1E8E3F3E0DF011D928A95E9F742
:100B20008AE082C06BE972E0C8012CD2892BD9F42B
:100B30006CE172E080E090E022D2FC01208130E0A4
:100B400030930102209300028181382B30930102FF
:100B50002093000284E1E8E3F3E0DF011D928A952F
:100B6000E9F78DE061C064EA72E0C8010BD2892B1D
:100B7000D9F46CE172E080E090E001D2FC012081C8
:100B800030E030930102209300028181382B3093B2
:100B900001022093000284E1E8E3F3E0DF011D920B
:100BA0008A95E9F788E040C06CEA72E0C801EAD1B2
:100BB000892BC9F56CE172E080E090E0E0D1FC01A6
:100BC000208130E030930102209300028181382B94
:100BD000309301022093000284E1E8E3F3E0DF01B7
:100BE0001D928A95E9F783E11FC081E01DC082E074
:100BF0001BC083E019C084E017C085E015C086E003
:100C000013C084E611C087E00FC08BE00DC08CE0FC
:100C10000BC08EE009C08FE007C080E105C081E114
:100C200003C082E101C080E0DF91CF911F910F915D
:100C300008958FEF7BDE8FEF79DE8FEF77CE08950B
:100C4000CF93DF93C0E0D0E0CE0199DD019621F48F
:100C500060E070E0CE0183DD2296C236D105A1F7B7
:100C6000DF91CF910895EF92FF920F931F93CF934F
:100C7000DF93082F10E00F2EF4E1EF2EF02DC62F9A
:100C8000D0E0FF24F3942FEF81EE94E021508040D8
:100C90009040E1F700C0000084EB92E080DE80919C
:100CA000CB0265DE9091CB02911112C089EB92E0EC
:100CB00045DEC80164DD4AE064E073E09AD184E077
:100CC00093E03CDEB6DF8091CB028F5F8093CB0256
:100CD00088E393E072DE883009F056C0609100022C
:100CE00070910102C8013BDD1092CB02AFEFB1EE73
:100CF00024E0A150B0402040E1F700C0000081ECAA
:100D000092E04DDE8091CB0232DE9091CB029111C8
:100D100012C089EB92E012DECE0131DD4AE064E0E0
:100D200073E067D184E093E009DE83DF9091CB022A
:100D30009F5F9093CB0288E393E03FDE8D3089F490
:100D40006091000270910102CE0109DD95E0E3E5BA
:100D5000F2E0A8E3B3E001900D929A95E1F7F092EA
:100D6000CA0288E393E029DE843609F0BFCF1092EF
:100D7000CB028091CA02813039F0E8E3F3E0DF0171
:100D80002E2D1D922A95E9F788E393E016DE84362E
:100D900009F079CF1092CB0284E1E8E3F3E0DF01C0
:100DA0001D928A95E9F71092CA02DF91CF911F91A7
:100DB0000F91FF90EF900895CF93DF93C82FD0E06D
:100DC0002FEF81EE94E0215080409040E1F700C089
:100DD00000009091CB02911112C089EB92E0AEDD40
:100DE000CE01CDDC4AE064E073E003D184E093E01F
:100DF000A5DD1FDF9091CB029F5F9093CB0288E32C
:100E000093E0DBDD893079F460910002709101029A
:100E1000CE01A5DC95E0E3E5F2E0A8E3B3E00190C4
:100E20000D929A95E1F788E393E0C7DD843609F0E7
:100E3000C7CF1092CB0284E1E8E3F3E0DF011D921B
:100E40008A95E9F7DF91CF910895CF93DF93C82F6B
:100E5000D0E02FEF81EE94E0215080409040E1F708
:100E600000C000009091CB02911112C089EB92E07A
:100E700065DDCE0184DC4AE064E073E0BAD084E052
:100E800093E05CDDD6DE9091CB029F5F9093CB0226
:100E900088E393E092DD8A3079F4609100027091EA
:100EA0000102CE015CDC95E0E3E5F2E0A8E3B3E00B
:100EB00001900D929A95E1F788E393E07EDD843608
:100EC00009F0C7CF1092CB0284E1E8E3F3E0DF0141
:100ED0001D928A95E9F7DF91CF910895CF93DF9323
:100EE000C82FD0E02FEF81EE94E021508040904059
:100EF000E1F700C000009091CB02911112C089EB84
:100F000092E01CDDCE013BDC4AE064E073E071D08E
:100F100084E093E013DD8DDE9091CB029F5F909390
:100F2000CB0288E393E049DD833179F460910002DC
:100F300070910102CE0113DC95E0E3E5F2E0A8E355
:100F4000B3E001900D929A95E1F788E393E035DDE7
:100F5000843609F0C7CF1092CB0284E1E8E3F3E0D6
:100F6000DF011D928A95E9F7DF91CF910895EE0F89
:100F7000FF1F881F8BBF0790F691E02D199448EC56
:100F800052E010C0FB01DC018D910190801901102D
:100F9000D9F3990B0895FB01DC0101900D9200201B
:100FA000E1F70895FA01A191B081009719F4109723
:100FB000E1F0CD01DC01CD010D90002011F4C00164
:100FC00013C0FB012191222319F02015D9F7F3CF8B
:100FD000FB012191201519F41E92119606C02223BF
:100FE000C1F70D900020A1F7D001FA01A193B083C1
:100FF0000895BB274A3031F4992322F4BDE290953D
:1010000081959F4F01C0BB27FB015527AA27880F59
:10101000991FAA1FA41710F0A41B83955051B9F76C
:10102000A05DAA3308F0A95DA193009779F7B111EB
:10103000B1931192CB0100C0DC01FC01672F7191CB
:101040007723E1F7329704C07C916D9370836291AE
:0C105000AE17BF07C8F30895F894FFCF57
:10105C0003003C70616765204D61696E006174200E
:10106C00486F6D6520005374617274007C0070725F
:10107C006F6772616D20310070726F6772616D20E5
:10108C00320070726F6772616D20330070726F671F
:10109C0072616D2034007031656469740073746121
:1010AC007274006261636B007374626C6F74796D3F
:1010BC0000656E64626C6F74796D007265676100B7
:1010CC0072656762007265676300726567640072BF
:1010DC0065676500736572766963650052454741C3
:1010EC00425400524547454E4254005245474157E1
:1010FC0054594D0052454741515459005350494E93
:10110C0054594D0071747920006E302E76616C3D0F
:08111C000077616974200000F6
:00000001FF
